{
  "_format": "hh-sol-artifact-1",
  "contractName": "RoomMarketplace",
  "sourceName": "contracts/RoomMarketplace.sol",
  "abi": [
    {
      "inputs": [
        {
          "internalType": "address",
          "name": "_roomTokenContractAddress",
          "type": "address"
        },
        {
          "internalType": "address",
          "name": "_RentRoomContractAddress",
          "type": "address"
        }
      ],
      "stateMutability": "nonpayable",
      "type": "constructor"
    },
    {
      "inputs": [
        {
          "internalType": "uint256",
          "name": "tokenId",
          "type": "uint256"
        }
      ],
      "name": "RoomMarketplace__AlreadyListed",
      "type": "error"
    },
    {
      "inputs": [],
      "name": "RoomMarketplace__FeeNotInRange",
      "type": "error"
    },
    {
      "inputs": [],
      "name": "RoomMarketplace__NoFees",
      "type": "error"
    },
    {
      "inputs": [],
      "name": "RoomMarketplace__NoProceeds",
      "type": "error"
    },
    {
      "inputs": [],
      "name": "RoomMarketplace__NotApprovedForMarketplace",
      "type": "error"
    },
    {
      "inputs": [
        {
          "internalType": "uint256",
          "name": "tokenId",
          "type": "uint256"
        }
      ],
      "name": "RoomMarketplace__NotListed",
      "type": "error"
    },
    {
      "inputs": [],
      "name": "RoomMarketplace__NotOwner",
      "type": "error"
    },
    {
      "inputs": [],
      "name": "RoomMarketplace__PriceMustBeAboveZero",
      "type": "error"
    },
    {
      "inputs": [
        {
          "internalType": "uint256",
          "name": "tokenId",
          "type": "uint256"
        },
        {
          "internalType": "uint256",
          "name": "price",
          "type": "uint256"
        }
      ],
      "name": "RoomMarketplace__PriceNotMet",
      "type": "error"
    },
    {
      "inputs": [
        {
          "internalType": "uint256",
          "name": "tokenId",
          "type": "uint256"
        }
      ],
      "name": "RoomMarketplace__isForRent",
      "type": "error"
    },
    {
      "inputs": [
        {
          "internalType": "uint256",
          "name": "tokenId",
          "type": "uint256"
        },
        {
          "internalType": "address",
          "name": "user",
          "type": "address"
        }
      ],
      "name": "RoomMarketplace__isRented",
      "type": "error"
    },
    {
      "anonymous": false,
      "inputs": [
        {
          "indexed": true,
          "internalType": "address",
          "name": "seller",
          "type": "address"
        },
        {
          "indexed": true,
          "internalType": "uint256",
          "name": "tokenId",
          "type": "uint256"
        }
      ],
      "name": "ListingCanceled",
      "type": "event"
    },
    {
      "anonymous": false,
      "inputs": [
        {
          "indexed": true,
          "internalType": "address",
          "name": "seller",
          "type": "address"
        },
        {
          "indexed": true,
          "internalType": "uint256",
          "name": "tokenId",
          "type": "uint256"
        },
        {
          "indexed": false,
          "internalType": "uint256",
          "name": "newPrice",
          "type": "uint256"
        }
      ],
      "name": "ListingUpdated",
      "type": "event"
    },
    {
      "anonymous": false,
      "inputs": [
        {
          "indexed": false,
          "internalType": "uint256",
          "name": "newFeePercentage",
          "type": "uint256"
        }
      ],
      "name": "NewFee",
      "type": "event"
    },
    {
      "anonymous": false,
      "inputs": [
        {
          "indexed": true,
          "internalType": "address",
          "name": "seller",
          "type": "address"
        },
        {
          "indexed": true,
          "internalType": "uint256",
          "name": "tokenId",
          "type": "uint256"
        },
        {
          "indexed": false,
          "internalType": "uint256",
          "name": "price",
          "type": "uint256"
        }
      ],
      "name": "NewRoomListed",
      "type": "event"
    },
    {
      "anonymous": false,
      "inputs": [
        {
          "indexed": true,
          "internalType": "address",
          "name": "previousOwner",
          "type": "address"
        },
        {
          "indexed": true,
          "internalType": "address",
          "name": "newOwner",
          "type": "address"
        }
      ],
      "name": "OwnershipTransferred",
      "type": "event"
    },
    {
      "anonymous": false,
      "inputs": [
        {
          "indexed": true,
          "internalType": "address",
          "name": "buyer",
          "type": "address"
        },
        {
          "indexed": true,
          "internalType": "uint256",
          "name": "tokenId",
          "type": "uint256"
        },
        {
          "indexed": false,
          "internalType": "uint256",
          "name": "price",
          "type": "uint256"
        }
      ],
      "name": "RoomBought",
      "type": "event"
    },
    {
      "inputs": [],
      "name": "RentRoomContractAddress",
      "outputs": [
        {
          "internalType": "address",
          "name": "",
          "type": "address"
        }
      ],
      "stateMutability": "view",
      "type": "function"
    },
    {
      "inputs": [
        {
          "internalType": "uint256",
          "name": "_tokenId",
          "type": "uint256"
        }
      ],
      "name": "buyItem",
      "outputs": [],
      "stateMutability": "payable",
      "type": "function"
    },
    {
      "inputs": [
        {
          "internalType": "uint256",
          "name": "_tokenId",
          "type": "uint256"
        }
      ],
      "name": "cancelListing",
      "outputs": [],
      "stateMutability": "nonpayable",
      "type": "function"
    },
    {
      "inputs": [],
      "name": "getFeePercentage",
      "outputs": [
        {
          "internalType": "uint256",
          "name": "",
          "type": "uint256"
        }
      ],
      "stateMutability": "view",
      "type": "function"
    },
    {
      "inputs": [
        {
          "internalType": "uint256",
          "name": "_tokenId",
          "type": "uint256"
        }
      ],
      "name": "getListing",
      "outputs": [
        {
          "components": [
            {
              "internalType": "uint256",
              "name": "price",
              "type": "uint256"
            },
            {
              "internalType": "address",
              "name": "seller",
              "type": "address"
            }
          ],
          "internalType": "struct RoomMarketplace.Listing",
          "name": "",
          "type": "tuple"
        }
      ],
      "stateMutability": "view",
      "type": "function"
    },
    {
      "inputs": [
        {
          "internalType": "address",
          "name": "_seller",
          "type": "address"
        }
      ],
      "name": "getProceeds",
      "outputs": [
        {
          "internalType": "uint256",
          "name": "",
          "type": "uint256"
        }
      ],
      "stateMutability": "view",
      "type": "function"
    },
    {
      "inputs": [
        {
          "internalType": "uint256",
          "name": "_tokenId",
          "type": "uint256"
        },
        {
          "internalType": "uint256",
          "name": "_price",
          "type": "uint256"
        }
      ],
      "name": "listItem",
      "outputs": [],
      "stateMutability": "nonpayable",
      "type": "function"
    },
    {
      "inputs": [],
      "name": "owner",
      "outputs": [
        {
          "internalType": "address",
          "name": "",
          "type": "address"
        }
      ],
      "stateMutability": "view",
      "type": "function"
    },
    {
      "inputs": [],
      "name": "renounceOwnership",
      "outputs": [],
      "stateMutability": "nonpayable",
      "type": "function"
    },
    {
      "inputs": [],
      "name": "roomTokenContractAddress",
      "outputs": [
        {
          "internalType": "address",
          "name": "",
          "type": "address"
        }
      ],
      "stateMutability": "view",
      "type": "function"
    },
    {
      "inputs": [
        {
          "internalType": "uint8",
          "name": "_newFeePercentage",
          "type": "uint8"
        }
      ],
      "name": "setFeePercentage",
      "outputs": [],
      "stateMutability": "nonpayable",
      "type": "function"
    },
    {
      "inputs": [
        {
          "internalType": "address",
          "name": "newOwner",
          "type": "address"
        }
      ],
      "name": "transferOwnership",
      "outputs": [],
      "stateMutability": "nonpayable",
      "type": "function"
    },
    {
      "inputs": [
        {
          "internalType": "uint256",
          "name": "_tokenId",
          "type": "uint256"
        },
        {
          "internalType": "uint256",
          "name": "_newPrice",
          "type": "uint256"
        }
      ],
      "name": "updateListing",
      "outputs": [],
      "stateMutability": "nonpayable",
      "type": "function"
    },
    {
      "inputs": [],
      "name": "withdrawFees",
      "outputs": [],
      "stateMutability": "nonpayable",
      "type": "function"
    },
    {
      "inputs": [],
      "name": "withdrawProceeds",
      "outputs": [],
      "stateMutability": "nonpayable",
      "type": "function"
    }
  ],
  "bytecode": "0x60806040526003805460ff60a01b1916600560a01b179055600060045534801561002857600080fd5b50604051611584380380611584833981016040819052610047916100f4565b600160005561005533610086565b600280546001600160a01b039384166001600160a01b03199182161790915560038054929093169116179055610127565b600180546001600160a01b038381166001600160a01b0319831681179093556040519116919082907f8be0079c531659141344cd1fd0a4f28419497f9722a3daafe3b4186f6b6457e090600090a35050565b80516001600160a01b03811681146100ef57600080fd5b919050565b6000806040838503121561010757600080fd5b610110836100d8565b915061011e602084016100d8565b90509250929050565b61144e806101366000396000f3fe6080604052600436106100e85760003560e01c8063476343ee1161008a5780639038e693116100595780639038e693146102d9578063a5766aa6146102ee578063e7fb74c71461030e578063f2fde38b1461032157600080fd5b8063476343ee14610271578063715018a614610286578063883efa671461029b5780638da5cb5b146102bb57600080fd5b8063305a67a8116100c6578063305a67a8146101c357806330cfeda9146101e357806331e483b61461021957806336f43f921461025157600080fd5b80630179ea88146100ed578063107a274a1461010f57806311efbf611461019a575b600080fd5b3480156100f957600080fd5b5061010d610108366004611234565b610341565b005b34801561011b57600080fd5b5061017161012a366004611256565b604080518082019091526000808252602082015250600090815260056020908152604091829020825180840190935280548352600101546001600160a01b03169082015290565b60408051825181526020928301516001600160a01b031692810192909252015b60405180910390f35b3480156101a657600080fd5b50600354600160a01b900460ff165b604051908152602001610191565b3480156101cf57600080fd5b5061010d6101de366004611256565b6104d4565b3480156101ef57600080fd5b506101b56101fe366004611284565b6001600160a01b031660009081526006602052604090205490565b34801561022557600080fd5b50600254610239906001600160a01b031681565b6040516001600160a01b039091168152602001610191565b34801561025d57600080fd5b50600354610239906001600160a01b031681565b34801561027d57600080fd5b5061010d610638565b34801561029257600080fd5b5061010d610720565b3480156102a757600080fd5b5061010d6102b6366004611234565b610734565b3480156102c757600080fd5b506001546001600160a01b0316610239565b3480156102e557600080fd5b5061010d610bc8565b3480156102fa57600080fd5b5061010d6103093660046112a8565b610c2d565b61010d61031c366004611256565b610ce5565b34801561032d57600080fd5b5061010d61033c366004611284565b611092565b600082815260056020908152604091829020825180840190935280548084526001909101546001600160a01b03169183019190915283919061039e57604051631f8af1f760e11b8152600481018390526024015b60405180910390fd5b6002546040516331a9108f60e11b815260048101869052859133916001600160a01b03909116906000908290636352211e90602401602060405180830381865afa1580156103f0573d6000803e3d6000fd5b505050506040513d601f19601f8201168201806040525081019061041491906112db565b9050806001600160a01b0316836001600160a01b031614610448576040516331894e5160e21b815260040160405180910390fd5b610450611122565b8660000361047157604051631063523f60e01b815260040160405180910390fd5b6000888152600560205260409081902088905551889033907f3e11d82182e9689c0f7ffc3ce2a4a057e1fc080032c0dcce9c269258c874a86c906104b8908b815260200190565b60405180910390a36104ca6001600055565b5050505050505050565b6002546040516331a9108f60e11b815260048101839052829133916001600160a01b03909116906000908290636352211e90602401602060405180830381865afa158015610526573d6000803e3d6000fd5b505050506040513d601f19601f8201168201806040525081019061054a91906112db565b9050806001600160a01b0316836001600160a01b03161461057e576040516331894e5160e21b815260040160405180910390fd5b600085815260056020908152604091829020825180840190935280548084526001909101546001600160a01b0316918301919091528691906105d657604051631f8af1f760e11b815260048101839052602401610395565b600087815260056020526040808220828155600101805473ffffffffffffffffffffffffffffffffffffffff1916905551889133917f3267ca70878aeda07084f851ec813390240ed2e92e29d57bf4b46f569293d85f9190a350505050505050565b61064061117b565b6004548061067a576040517fd4ddfa1900000000000000000000000000000000000000000000000000000000815260040160405180910390fd5b60006004819055604051339083905b60006040518083038185875af1925050503d80600081146106c6576040519150601f19603f3d011682016040523d82523d6000602084013e6106cb565b606091505b505090508061071c5760405162461bcd60e51b815260206004820152600f60248201527f5472616e73666572206661696c656400000000000000000000000000000000006044820152606401610395565b5050565b61072861117b565b61073260006111d5565b565b600082815260056020908152604091829020825180840190935280548084526001909101546001600160a01b03169183019190915283913391156107a7576040517fdf6861f900000000000000000000000000000000000000000000000000000000815260048101849052602401610395565b6002546040516331a9108f60e11b815260048101879052869133916001600160a01b03909116906000908290636352211e90602401602060405180830381865afa1580156107f9573d6000803e3d6000fd5b505050506040513d601f19601f8201168201806040525081019061081d91906112db565b9050806001600160a01b0316836001600160a01b031614610851576040516331894e5160e21b815260040160405180910390fd5b60035460405163083d13a560e11b8152600481018b90528a916000916001600160a01b039091169063107a274a90602401608060405180830381865afa15801561089f573d6000803e3d6000fd5b505050506040513d601f19601f820116820180604052508101906108c39190611310565b516001600160a01b0316146108ee576040516332d8506760e21b815260048101829052602401610395565b600254604051636178f8a560e11b8152600481018c90528b916000916001600160a01b039091169063c2f1f14a90602401602060405180830381865afa15801561093c573d6000803e3d6000fd5b505050506040513d601f19601f8201168201806040525081019061096091906112db565b6001600160a01b031614610a2057600254604051636178f8a560e11b81526004810183905282916001600160a01b03169063c2f1f14a906024015b602060405180830381865afa1580156109b8573d6000803e3d6000fd5b505050506040513d601f19601f820116820180604052508101906109dc91906112db565b6040517f94c1f7be00000000000000000000000000000000000000000000000000000000815260048101929092526001600160a01b03166024820152604401610395565b60008a11610a4157604051631063523f60e01b815260040160405180910390fd5b6002546040517f081812fc000000000000000000000000000000000000000000000000000000008152600481018d90526001600160a01b03909116903090829063081812fc90602401602060405180830381865afa158015610aa7573d6000803e3d6000fd5b505050506040513d601f19601f82011682018060405250810190610acb91906112db565b6001600160a01b031614610b0b576040517fa99bd59100000000000000000000000000000000000000000000000000000000815260040160405180910390fd5b60405180604001604052808c8152602001336001600160a01b0316815250600560008e81526020019081526020016000206000820151816000015560208201518160010160006101000a8154816001600160a01b0302191690836001600160a01b031602179055509050508b336001600160a01b03167f5ccd4a41943d4989bf21e3d859886e000429d2f0a60af5de8fdbf111b5c53f238d604051610bb291815260200190565b60405180910390a3505050505050505050505050565b3360009081526006602052604090205480610c0f576040517f19ebba2d00000000000000000000000000000000000000000000000000000000815260040160405180910390fd5b33600081815260066020526040808220829055519091908390610689565b610c3561117b565b60648160ff161115610c73576040517f22b2bca300000000000000000000000000000000000000000000000000000000815260040160405180910390fd5b600380547fffffffffffffffffffffff00ffffffffffffffffffffffffffffffffffffffff16600160a01b60ff8481168202929092179283905560405192041681527f63fe946ed58429ac3c5e64d4356ff92c26d7fa1e73586515df8ba9f059ab54a59060200160405180910390a150565b600081815260056020908152604091829020825180840190935280548084526001909101546001600160a01b031691830191909152829190610d3d57604051631f8af1f760e11b815260048101839052602401610395565b60035460405163083d13a560e11b81526004810185905284916000916001600160a01b039091169063107a274a90602401608060405180830381865afa158015610d8b573d6000803e3d6000fd5b505050506040513d601f19601f82011682018060405250810190610daf9190611310565b516001600160a01b031614610dda576040516332d8506760e21b815260048101829052602401610395565b600254604051636178f8a560e11b81526004810186905285916000916001600160a01b039091169063c2f1f14a90602401602060405180830381865afa158015610e28573d6000803e3d6000fd5b505050506040513d601f19601f82011682018060405250810190610e4c91906112db565b6001600160a01b031614610e8b57600254604051636178f8a560e11b81526004810183905282916001600160a01b03169063c2f1f14a9060240161099b565b610e93611122565b600085815260056020908152604091829020825180840190935280548084526001909101546001600160a01b031691830191909152341015610f0e5780516040517f2fa05d42000000000000000000000000000000000000000000000000000000008152610395918891600401918252602082015260400190565b600354600090606490610f2b90600160a01b900460ff16346113b3565b610f3591906113d0565b90508060046000828254610f4991906113f2565b90915550610f5990508134611405565b6020808401516001600160a01b031660009081526006909152604081208054909190610f869084906113f2565b909155505060008781526005602090815260408083209283556001909201805473ffffffffffffffffffffffffffffffffffffffff191690556002549084015191517f42842e0e0000000000000000000000000000000000000000000000000000000081526001600160a01b039283166004820152336024820152604481018a90529116906342842e0e90606401600060405180830381600087803b15801561102e57600080fd5b505af1158015611042573d6000803e3d6000fd5b505083516040519081528992503391507f23408f27c0741bb9b7ceb31680251d0a58417a68dfbc647c50a119666b5c76e59060200160405180910390a3505061108b6001600055565b5050505050565b61109a61117b565b6001600160a01b0381166111165760405162461bcd60e51b815260206004820152602660248201527f4f776e61626c653a206e6577206f776e657220697320746865207a65726f206160448201527f64647265737300000000000000000000000000000000000000000000000000006064820152608401610395565b61111f816111d5565b50565b6002600054036111745760405162461bcd60e51b815260206004820152601f60248201527f5265656e7472616e637947756172643a207265656e7472616e742063616c6c006044820152606401610395565b6002600055565b6001546001600160a01b031633146107325760405162461bcd60e51b815260206004820181905260248201527f4f776e61626c653a2063616c6c6572206973206e6f7420746865206f776e65726044820152606401610395565b600180546001600160a01b0383811673ffffffffffffffffffffffffffffffffffffffff19831681179093556040519116919082907f8be0079c531659141344cd1fd0a4f28419497f9722a3daafe3b4186f6b6457e090600090a35050565b6000806040838503121561124757600080fd5b50508035926020909101359150565b60006020828403121561126857600080fd5b5035919050565b6001600160a01b038116811461111f57600080fd5b60006020828403121561129657600080fd5b81356112a18161126f565b9392505050565b6000602082840312156112ba57600080fd5b813560ff811681146112a157600080fd5b80516112d68161126f565b919050565b6000602082840312156112ed57600080fd5b81516112a18161126f565b805167ffffffffffffffff811681146112d657600080fd5b6000608082840312801561132357600080fd5b600090506040516080810181811067ffffffffffffffff8211171561135657634e487b7160e01b83526041600452602483fd5b60405283516113648161126f565b8152611372602085016112cb565b602082015260408401519150816040820152611390606085016112f8565b6060820152949350505050565b634e487b7160e01b600052601160045260246000fd5b80820281158282048414176113ca576113ca61139d565b92915050565b6000826113ed57634e487b7160e01b600052601260045260246000fd5b500490565b808201808211156113ca576113ca61139d565b818103818111156113ca576113ca61139d56fea264697066735822122086e233a00a299e5debd390d95b44e815cb676a848232e85b17b3ce878f24237564736f6c634300081b0033",
  "linkReferences": {},
  "deployedLinkReferences": {}
}