{
  "_format": "hh-sol-artifact-1",
  "contractName": "ERC4907",
  "sourceName": "contracts/ERC4907.sol",
  "abi": [
    {
      "inputs": [
        {
          "internalType": "string",
          "name": "name_",
          "type": "string"
        },
        {
          "internalType": "string",
          "name": "symbol_",
          "type": "string"
        }
      ],
      "stateMutability": "nonpayable",
      "type": "constructor"
    },
    {
      "inputs": [],
      "name": "InvalidShortString",
      "type": "error"
    },
    {
      "inputs": [
        {
          "internalType": "string",
          "name": "str",
          "type": "string"
        }
      ],
      "name": "StringTooLong",
      "type": "error"
    },
    {
      "anonymous": false,
      "inputs": [
        {
          "indexed": true,
          "internalType": "address",
          "name": "owner",
          "type": "address"
        },
        {
          "indexed": true,
          "internalType": "address",
          "name": "approved",
          "type": "address"
        },
        {
          "indexed": true,
          "internalType": "uint256",
          "name": "tokenId",
          "type": "uint256"
        }
      ],
      "name": "Approval",
      "type": "event"
    },
    {
      "anonymous": false,
      "inputs": [
        {
          "indexed": true,
          "internalType": "address",
          "name": "owner",
          "type": "address"
        },
        {
          "indexed": true,
          "internalType": "address",
          "name": "operator",
          "type": "address"
        },
        {
          "indexed": false,
          "internalType": "bool",
          "name": "approved",
          "type": "bool"
        }
      ],
      "name": "ApprovalForAll",
      "type": "event"
    },
    {
      "anonymous": false,
      "inputs": [
        {
          "indexed": false,
          "internalType": "uint256",
          "name": "_fromTokenId",
          "type": "uint256"
        },
        {
          "indexed": false,
          "internalType": "uint256",
          "name": "_toTokenId",
          "type": "uint256"
        }
      ],
      "name": "BatchMetadataUpdate",
      "type": "event"
    },
    {
      "anonymous": false,
      "inputs": [
        {
          "indexed": true,
          "internalType": "address",
          "name": "delegator",
          "type": "address"
        },
        {
          "indexed": true,
          "internalType": "address",
          "name": "fromDelegate",
          "type": "address"
        },
        {
          "indexed": true,
          "internalType": "address",
          "name": "toDelegate",
          "type": "address"
        }
      ],
      "name": "DelegateChanged",
      "type": "event"
    },
    {
      "anonymous": false,
      "inputs": [
        {
          "indexed": true,
          "internalType": "address",
          "name": "delegate",
          "type": "address"
        },
        {
          "indexed": false,
          "internalType": "uint256",
          "name": "previousBalance",
          "type": "uint256"
        },
        {
          "indexed": false,
          "internalType": "uint256",
          "name": "newBalance",
          "type": "uint256"
        }
      ],
      "name": "DelegateVotesChanged",
      "type": "event"
    },
    {
      "anonymous": false,
      "inputs": [],
      "name": "EIP712DomainChanged",
      "type": "event"
    },
    {
      "anonymous": false,
      "inputs": [
        {
          "indexed": false,
          "internalType": "uint256",
          "name": "_tokenId",
          "type": "uint256"
        }
      ],
      "name": "MetadataUpdate",
      "type": "event"
    },
    {
      "anonymous": false,
      "inputs": [
        {
          "indexed": true,
          "internalType": "address",
          "name": "from",
          "type": "address"
        },
        {
          "indexed": true,
          "internalType": "address",
          "name": "to",
          "type": "address"
        },
        {
          "indexed": true,
          "internalType": "uint256",
          "name": "tokenId",
          "type": "uint256"
        }
      ],
      "name": "Transfer",
      "type": "event"
    },
    {
      "anonymous": false,
      "inputs": [
        {
          "indexed": true,
          "internalType": "uint256",
          "name": "tokenId",
          "type": "uint256"
        },
        {
          "indexed": true,
          "internalType": "address",
          "name": "user",
          "type": "address"
        },
        {
          "indexed": false,
          "internalType": "uint64",
          "name": "expires",
          "type": "uint64"
        }
      ],
      "name": "UpdateUser",
      "type": "event"
    },
    {
      "inputs": [],
      "name": "CLOCK_MODE",
      "outputs": [
        {
          "internalType": "string",
          "name": "",
          "type": "string"
        }
      ],
      "stateMutability": "view",
      "type": "function"
    },
    {
      "inputs": [],
      "name": "DOMAIN_SEPARATOR",
      "outputs": [
        {
          "internalType": "bytes32",
          "name": "",
          "type": "bytes32"
        }
      ],
      "stateMutability": "view",
      "type": "function"
    },
    {
      "inputs": [
        {
          "internalType": "address",
          "name": "to",
          "type": "address"
        },
        {
          "internalType": "uint256",
          "name": "tokenId",
          "type": "uint256"
        }
      ],
      "name": "approve",
      "outputs": [],
      "stateMutability": "nonpayable",
      "type": "function"
    },
    {
      "inputs": [
        {
          "internalType": "address",
          "name": "owner",
          "type": "address"
        }
      ],
      "name": "balanceOf",
      "outputs": [
        {
          "internalType": "uint256",
          "name": "",
          "type": "uint256"
        }
      ],
      "stateMutability": "view",
      "type": "function"
    },
    {
      "inputs": [],
      "name": "clock",
      "outputs": [
        {
          "internalType": "uint48",
          "name": "",
          "type": "uint48"
        }
      ],
      "stateMutability": "view",
      "type": "function"
    },
    {
      "inputs": [
        {
          "internalType": "address",
          "name": "delegatee",
          "type": "address"
        }
      ],
      "name": "delegate",
      "outputs": [],
      "stateMutability": "nonpayable",
      "type": "function"
    },
    {
      "inputs": [
        {
          "internalType": "address",
          "name": "delegatee",
          "type": "address"
        },
        {
          "internalType": "uint256",
          "name": "nonce",
          "type": "uint256"
        },
        {
          "internalType": "uint256",
          "name": "expiry",
          "type": "uint256"
        },
        {
          "internalType": "uint8",
          "name": "v",
          "type": "uint8"
        },
        {
          "internalType": "bytes32",
          "name": "r",
          "type": "bytes32"
        },
        {
          "internalType": "bytes32",
          "name": "s",
          "type": "bytes32"
        }
      ],
      "name": "delegateBySig",
      "outputs": [],
      "stateMutability": "nonpayable",
      "type": "function"
    },
    {
      "inputs": [
        {
          "internalType": "address",
          "name": "account",
          "type": "address"
        }
      ],
      "name": "delegates",
      "outputs": [
        {
          "internalType": "address",
          "name": "",
          "type": "address"
        }
      ],
      "stateMutability": "view",
      "type": "function"
    },
    {
      "inputs": [],
      "name": "eip712Domain",
      "outputs": [
        {
          "internalType": "bytes1",
          "name": "fields",
          "type": "bytes1"
        },
        {
          "internalType": "string",
          "name": "name",
          "type": "string"
        },
        {
          "internalType": "string",
          "name": "version",
          "type": "string"
        },
        {
          "internalType": "uint256",
          "name": "chainId",
          "type": "uint256"
        },
        {
          "internalType": "address",
          "name": "verifyingContract",
          "type": "address"
        },
        {
          "internalType": "bytes32",
          "name": "salt",
          "type": "bytes32"
        },
        {
          "internalType": "uint256[]",
          "name": "extensions",
          "type": "uint256[]"
        }
      ],
      "stateMutability": "view",
      "type": "function"
    },
    {
      "inputs": [
        {
          "internalType": "uint256",
          "name": "tokenId",
          "type": "uint256"
        }
      ],
      "name": "getApproved",
      "outputs": [
        {
          "internalType": "address",
          "name": "",
          "type": "address"
        }
      ],
      "stateMutability": "view",
      "type": "function"
    },
    {
      "inputs": [
        {
          "internalType": "uint256",
          "name": "timepoint",
          "type": "uint256"
        }
      ],
      "name": "getPastTotalSupply",
      "outputs": [
        {
          "internalType": "uint256",
          "name": "",
          "type": "uint256"
        }
      ],
      "stateMutability": "view",
      "type": "function"
    },
    {
      "inputs": [
        {
          "internalType": "address",
          "name": "account",
          "type": "address"
        },
        {
          "internalType": "uint256",
          "name": "timepoint",
          "type": "uint256"
        }
      ],
      "name": "getPastVotes",
      "outputs": [
        {
          "internalType": "uint256",
          "name": "",
          "type": "uint256"
        }
      ],
      "stateMutability": "view",
      "type": "function"
    },
    {
      "inputs": [
        {
          "internalType": "address",
          "name": "account",
          "type": "address"
        }
      ],
      "name": "getVotes",
      "outputs": [
        {
          "internalType": "uint256",
          "name": "",
          "type": "uint256"
        }
      ],
      "stateMutability": "view",
      "type": "function"
    },
    {
      "inputs": [
        {
          "internalType": "address",
          "name": "owner",
          "type": "address"
        },
        {
          "internalType": "address",
          "name": "operator",
          "type": "address"
        }
      ],
      "name": "isApprovedForAll",
      "outputs": [
        {
          "internalType": "bool",
          "name": "",
          "type": "bool"
        }
      ],
      "stateMutability": "view",
      "type": "function"
    },
    {
      "inputs": [],
      "name": "name",
      "outputs": [
        {
          "internalType": "string",
          "name": "",
          "type": "string"
        }
      ],
      "stateMutability": "view",
      "type": "function"
    },
    {
      "inputs": [
        {
          "internalType": "address",
          "name": "owner",
          "type": "address"
        }
      ],
      "name": "nonces",
      "outputs": [
        {
          "internalType": "uint256",
          "name": "",
          "type": "uint256"
        }
      ],
      "stateMutability": "view",
      "type": "function"
    },
    {
      "inputs": [
        {
          "internalType": "uint256",
          "name": "tokenId",
          "type": "uint256"
        }
      ],
      "name": "ownerOf",
      "outputs": [
        {
          "internalType": "address",
          "name": "",
          "type": "address"
        }
      ],
      "stateMutability": "view",
      "type": "function"
    },
    {
      "inputs": [
        {
          "internalType": "address",
          "name": "from",
          "type": "address"
        },
        {
          "internalType": "address",
          "name": "to",
          "type": "address"
        },
        {
          "internalType": "uint256",
          "name": "tokenId",
          "type": "uint256"
        }
      ],
      "name": "safeTransferFrom",
      "outputs": [],
      "stateMutability": "nonpayable",
      "type": "function"
    },
    {
      "inputs": [
        {
          "internalType": "address",
          "name": "from",
          "type": "address"
        },
        {
          "internalType": "address",
          "name": "to",
          "type": "address"
        },
        {
          "internalType": "uint256",
          "name": "tokenId",
          "type": "uint256"
        },
        {
          "internalType": "bytes",
          "name": "data",
          "type": "bytes"
        }
      ],
      "name": "safeTransferFrom",
      "outputs": [],
      "stateMutability": "nonpayable",
      "type": "function"
    },
    {
      "inputs": [
        {
          "internalType": "address",
          "name": "operator",
          "type": "address"
        },
        {
          "internalType": "bool",
          "name": "approved",
          "type": "bool"
        }
      ],
      "name": "setApprovalForAll",
      "outputs": [],
      "stateMutability": "nonpayable",
      "type": "function"
    },
    {
      "inputs": [
        {
          "internalType": "uint256",
          "name": "tokenId",
          "type": "uint256"
        },
        {
          "internalType": "address",
          "name": "user",
          "type": "address"
        },
        {
          "internalType": "uint64",
          "name": "expires",
          "type": "uint64"
        }
      ],
      "name": "setUser",
      "outputs": [],
      "stateMutability": "nonpayable",
      "type": "function"
    },
    {
      "inputs": [
        {
          "internalType": "bytes4",
          "name": "interfaceId",
          "type": "bytes4"
        }
      ],
      "name": "supportsInterface",
      "outputs": [
        {
          "internalType": "bool",
          "name": "",
          "type": "bool"
        }
      ],
      "stateMutability": "view",
      "type": "function"
    },
    {
      "inputs": [],
      "name": "symbol",
      "outputs": [
        {
          "internalType": "string",
          "name": "",
          "type": "string"
        }
      ],
      "stateMutability": "view",
      "type": "function"
    },
    {
      "inputs": [
        {
          "internalType": "uint256",
          "name": "tokenId",
          "type": "uint256"
        }
      ],
      "name": "tokenURI",
      "outputs": [
        {
          "internalType": "string",
          "name": "",
          "type": "string"
        }
      ],
      "stateMutability": "view",
      "type": "function"
    },
    {
      "inputs": [
        {
          "internalType": "address",
          "name": "from",
          "type": "address"
        },
        {
          "internalType": "address",
          "name": "to",
          "type": "address"
        },
        {
          "internalType": "uint256",
          "name": "tokenId",
          "type": "uint256"
        }
      ],
      "name": "transferFrom",
      "outputs": [],
      "stateMutability": "nonpayable",
      "type": "function"
    },
    {
      "inputs": [
        {
          "internalType": "uint256",
          "name": "tokenId",
          "type": "uint256"
        }
      ],
      "name": "userExpires",
      "outputs": [
        {
          "internalType": "uint256",
          "name": "",
          "type": "uint256"
        }
      ],
      "stateMutability": "view",
      "type": "function"
    },
    {
      "inputs": [
        {
          "internalType": "uint256",
          "name": "tokenId",
          "type": "uint256"
        }
      ],
      "name": "userOf",
      "outputs": [
        {
          "internalType": "address",
          "name": "",
          "type": "address"
        }
      ],
      "stateMutability": "view",
      "type": "function"
    }
  ],
  "bytecode": "0x61016060405234801561001157600080fd5b506040516131653803806131658339810160408190526100309161025f565b6040805180820190915260018152603160f81b60208201528290818360006100588382610351565b5060016100658282610351565b5061007591508390506007610122565b61012052610084816008610122565b61014052815160208084019190912060e052815190820120610100524660a05261011160e05161010051604080517f8b73c3c69bb8fe3d512ecc4cf759cc79239f7b179b0ffacaa9a75d522b39400f60208201529081019290925260608201524660808201523060a082015260009060c00160405160208183030381529060405280519060200120905090565b60805250503060c052506104669050565b600060208351101561013e5761013783610155565b905061014f565b816101498482610351565b5060ff90505b92915050565b600080829050601f81511115610189578260405163305a27a960e01b8152600401610180919061040f565b60405180910390fd5b805161019482610442565b179392505050565b634e487b7160e01b600052604160045260246000fd5b60005b838110156101cd5781810151838201526020016101b5565b50506000910152565b600082601f8301126101e757600080fd5b81516001600160401b038111156102005761020061019c565b604051601f8201601f19908116603f011681016001600160401b038111828210171561022e5761022e61019c565b60405281815283820160200185101561024657600080fd5b6102578260208301602087016101b2565b949350505050565b6000806040838503121561027257600080fd5b82516001600160401b0381111561028857600080fd5b610294858286016101d6565b602085015190935090506001600160401b038111156102b257600080fd5b6102be858286016101d6565b9150509250929050565b600181811c908216806102dc57607f821691505b6020821081036102fc57634e487b7160e01b600052602260045260246000fd5b50919050565b601f82111561034c57806000526020600020601f840160051c810160208510156103295750805b601f840160051c820191505b818110156103495760008155600101610335565b50505b505050565b81516001600160401b0381111561036a5761036a61019c565b61037e8161037884546102c8565b84610302565b6020601f8211600181146103b2576000831561039a5750848201515b600019600385901b1c1916600184901b178455610349565b600084815260208120601f198516915b828110156103e257878501518255602094850194600190920191016103c2565b50848210156104005786840151600019600387901b60f8161c191681555b50505050600190811b01905550565b602081526000825180602084015261042e8160408501602087016101b2565b601f01601f19169190910160400192915050565b805160208083015191908110156102fc5760001960209190910360031b1b16919050565b60805160a05160c05160e051610100516101205161014051612ca56104c060003960006109bc01526000610991015260006112920152600061126a015260006111c5015260006111ef015260006112190152612ca56000f3fe608060405234801561001057600080fd5b50600436106101b95760003560e01c80637ecebe00116100f9578063a22cb46511610097578063c3cda52011610071578063c3cda520146103dc578063c87b56dd146103ef578063e030565e14610402578063e985e9c51461041557600080fd5b8063a22cb465146103a3578063b88d4fde146103b6578063c2f1f14a146103c957600080fd5b80638fc88c48116100d35780638fc88c481461033857806391ddadf41461036957806395d89b41146103885780639ab24eb01461039057600080fd5b80637ecebe00146102f757806384b0196e1461030a5780638e539e8c1461032557600080fd5b80633a46b1a811610166578063587cde1e11610140578063587cde1e146102925780635c19a95c146102be5780636352211e146102d157806370a08231146102e457600080fd5b80633a46b1a81461026457806342842e0e146102775780634bf5d7e91461028a57600080fd5b8063095ea7b311610197578063095ea7b31461022657806323b872dd1461023b5780633644e5151461024e57600080fd5b806301ffc9a7146101be57806306fdde03146101e6578063081812fc146101fb575b600080fd5b6101d16101cc3660046126ea565b610451565b60405190151581526020015b60405180910390f35b6101ee610495565b6040516101dd9190612757565b61020e61020936600461276a565b610527565b6040516001600160a01b0390911681526020016101dd565b61023961023436600461279a565b61054e565b005b6102396102493660046127c4565b610684565b6102566106fb565b6040519081526020016101dd565b61025661027236600461279a565b61070a565b6102396102853660046127c4565b6107a4565b6101ee6107bf565b61020e6102a0366004612801565b6001600160a01b039081166000908152600960205260409020541690565b6102396102cc366004612801565b610857565b61020e6102df36600461276a565b610866565b6102566102f2366004612801565b6108cb565b610256610305366004612801565b610965565b610312610983565b6040516101dd979695949392919061281c565b61025661033336600461276a565b610a28565b61025661034636600461276a565b6000908152600d6020526040902054600160a01b900467ffffffffffffffff1690565b610371610aab565b60405165ffffffffffff90911681526020016101dd565b6101ee610ab6565b61025661039e366004612801565b610ac5565b6102396103b13660046128d0565b610ae6565b6102396103c4366004612922565b610af1565b61020e6103d736600461276a565b610b6f565b6102396103ea366004612a06565b610bbf565b6101ee6103fd36600461276a565b610cf5565b610239610410366004612a66565b610d00565b6101d1610423366004612ab3565b6001600160a01b03918216600090815260056020908152604080832093909416825291909152205460ff1690565b60006001600160e01b031982167fad092b5c00000000000000000000000000000000000000000000000000000000148061048f575061048f82610dfe565b92915050565b6060600080546104a490612ae6565b80601f01602080910402602001604051908101604052809291908181526020018280546104d090612ae6565b801561051d5780601f106104f25761010080835404028352916020019161051d565b820191906000526020600020905b81548152906001019060200180831161050057829003601f168201915b5050505050905090565b600061053282610e3c565b506000908152600460205260409020546001600160a01b031690565b600061055982610866565b9050806001600160a01b0316836001600160a01b0316036105e75760405162461bcd60e51b815260206004820152602160248201527f4552433732313a20617070726f76616c20746f2063757272656e74206f776e6560448201527f720000000000000000000000000000000000000000000000000000000000000060648201526084015b60405180910390fd5b336001600160a01b038216148061060357506106038133610423565b6106755760405162461bcd60e51b815260206004820152603d60248201527f4552433732313a20617070726f76652063616c6c6572206973206e6f7420746f60448201527f6b656e206f776e6572206f7220617070726f76656420666f7220616c6c00000060648201526084016105de565b61067f8383610ea3565b505050565b61068e3382610f1e565b6106f05760405162461bcd60e51b815260206004820152602d60248201527f4552433732313a2063616c6c6572206973206e6f7420746f6b656e206f776e6560448201526c1c881bdc88185c1c1c9bdd9959609a1b60648201526084016105de565b61067f838383610f9d565b60006107056111b8565b905090565b6000610714610aab565b65ffffffffffff16821061076a5760405162461bcd60e51b815260206004820152601460248201527f566f7465733a20667574757265206c6f6f6b757000000000000000000000000060448201526064016105de565b610794610776836112e3565b6001600160a01b0385166000908152600a6020526040902090611363565b6001600160e01b03169392505050565b61067f83838360405180602001604052806000815250610af1565b6060436107ca610aab565b65ffffffffffff161461081f5760405162461bcd60e51b815260206004820152601860248201527f566f7465733a2062726f6b656e20636c6f636b206d6f6465000000000000000060448201526064016105de565b5060408051808201909152601d81527f6d6f64653d626c6f636b6e756d6265722666726f6d3d64656661756c74000000602082015290565b336108628183611418565b5050565b6000818152600260205260408120546001600160a01b03168061048f5760405162461bcd60e51b815260206004820152601860248201527f4552433732313a20696e76616c696420746f6b656e204944000000000000000060448201526064016105de565b60006001600160a01b0382166109495760405162461bcd60e51b815260206004820152602960248201527f4552433732313a2061646472657373207a65726f206973206e6f74206120766160448201527f6c6964206f776e6572000000000000000000000000000000000000000000000060648201526084016105de565b506001600160a01b031660009081526003602052604090205490565b6001600160a01b0381166000908152600c602052604081205461048f565b6000606080828080836109b77f00000000000000000000000000000000000000000000000000000000000000006007611497565b6109e27f00000000000000000000000000000000000000000000000000000000000000006008611497565b604080516000808252602082019092527f0f000000000000000000000000000000000000000000000000000000000000009b939a50919850469750309650945092509050565b6000610a32610aab565b65ffffffffffff168210610a885760405162461bcd60e51b815260206004820152601460248201527f566f7465733a20667574757265206c6f6f6b757000000000000000000000000060448201526064016105de565b610a9c610a94836112e3565b600b90611363565b6001600160e01b031692915050565b600061070543611542565b6060600180546104a490612ae6565b6001600160a01b0381166000908152600a60205260408120610a9c906115c0565b6108623383836115fb565b610afb3383610f1e565b610b5d5760405162461bcd60e51b815260206004820152602d60248201527f4552433732313a2063616c6c6572206973206e6f7420746f6b656e206f776e6560448201526c1c881bdc88185c1c1c9bdd9959609a1b60648201526084016105de565b610b69848484846116c9565b50505050565b6000818152600d602052604081205442600160a01b90910467ffffffffffffffff1610610bb257506000908152600d60205260409020546001600160a01b031690565b506000919050565b919050565b83421115610c0f5760405162461bcd60e51b815260206004820152601860248201527f566f7465733a207369676e61747572652065787069726564000000000000000060448201526064016105de565b604080517fe48329057bfd03d55e49b547132e39cffd9c1820ad7b9d4c5307691425d15adf60208201526001600160a01b038816918101919091526060810186905260808101859052600090610c8990610c819060a00160405160208183030381529060405280519060200120611752565b85858561179a565b9050610c94816117c2565b8614610ce25760405162461bcd60e51b815260206004820152601460248201527f566f7465733a20696e76616c6964206e6f6e636500000000000000000000000060448201526064016105de565b610cec8188611418565b50505050505050565b606061048f826117ea565b610d0a3384610f1e565b610d7c5760405162461bcd60e51b815260206004820152603260248201527f455243343930373a207472616e736665722063616c6c6572206973206e6f742060448201527f6f776e6572206e6f7220617070726f766564000000000000000000000000000060648201526084016105de565b6000838152600d602090815260409182902080546001600160a01b0386166001600160e01b03199091168117600160a01b67ffffffffffffffff871690810291909117835593519384529092909186917f4e06b4e7000e659094299b3533b47b6aa8ad048e95e872d23d1f4ee55af89cfe91015b60405180910390a350505050565b60006001600160e01b031982167f4906490600000000000000000000000000000000000000000000000000000000148061048f575061048f82611905565b6000818152600260205260409020546001600160a01b0316610ea05760405162461bcd60e51b815260206004820152601860248201527f4552433732313a20696e76616c696420746f6b656e204944000000000000000060448201526064016105de565b50565b6000818152600460205260409020805473ffffffffffffffffffffffffffffffffffffffff19166001600160a01b0384169081179091558190610ee582610866565b6001600160a01b03167f8c5be1e5ebec7d5bd14f71427d1e84f3dd0314c0f7b2291e5b200ac8c7c3b92560405160405180910390a45050565b600080610f2a83610866565b9050806001600160a01b0316846001600160a01b03161480610f7157506001600160a01b0380821660009081526005602090815260408083209388168352929052205460ff165b80610f955750836001600160a01b0316610f8a84610527565b6001600160a01b0316145b949350505050565b826001600160a01b0316610fb082610866565b6001600160a01b0316146110145760405162461bcd60e51b815260206004820152602560248201527f4552433732313a207472616e736665722066726f6d20696e636f72726563742060448201526437bbb732b960d91b60648201526084016105de565b6001600160a01b03821661108f5760405162461bcd60e51b8152602060048201526024808201527f4552433732313a207472616e7366657220746f20746865207a65726f2061646460448201527f726573730000000000000000000000000000000000000000000000000000000060648201526084016105de565b61109c83838360016119a0565b826001600160a01b03166110af82610866565b6001600160a01b0316146111135760405162461bcd60e51b815260206004820152602560248201527f4552433732313a207472616e736665722066726f6d20696e636f72726563742060448201526437bbb732b960d91b60648201526084016105de565b6000818152600460209081526040808320805473ffffffffffffffffffffffffffffffffffffffff199081169091556001600160a01b0387811680865260038552838620805460001901905590871680865283862080546001019055868652600290945282852080549092168417909155905184937fddf252ad1be2c89b69c2b068fc378daa952ba7f163c4a11628f55a4df523b3ef91a461067f8383836001611a2a565b6000306001600160a01b037f00000000000000000000000000000000000000000000000000000000000000001614801561121157507f000000000000000000000000000000000000000000000000000000000000000046145b1561123b57507f000000000000000000000000000000000000000000000000000000000000000090565b610705604080517f8b73c3c69bb8fe3d512ecc4cf759cc79239f7b179b0ffacaa9a75d522b39400f60208201527f0000000000000000000000000000000000000000000000000000000000000000918101919091527f000000000000000000000000000000000000000000000000000000000000000060608201524660808201523060a082015260009060c00160405160208183030381529060405280519060200120905090565b600063ffffffff82111561135f5760405162461bcd60e51b815260206004820152602660248201527f53616665436173743a2076616c756520646f65736e27742066697420696e203360448201527f322062697473000000000000000000000000000000000000000000000000000060648201526084016105de565b5090565b8154600090818160058111156113c057600061137e84611a36565b6113889085612b30565b60008881526020902090915081015463ffffffff90811690871610156113b0578091506113be565b6113bb816001612b43565b92505b505b60006113ce87878585611b1e565b9050801561140a576113f3876113e5600184612b30565b600091825260209091200190565b5464010000000090046001600160e01b031661140d565b60005b979650505050505050565b6001600160a01b03828116600081815260096020526040808220805486861673ffffffffffffffffffffffffffffffffffffffff19821681179092559151919094169392849290917f3134e8a2e6d97e929a7e54011ea5485d7d196dd5f0ba4d4ef95803e8e3fc257f9190a461067f818361149286611b7c565b611b87565b606060ff83146114b1576114aa83611cf3565b905061048f565b8180546114bd90612ae6565b80601f01602080910402602001604051908101604052809291908181526020018280546114e990612ae6565b80156115365780601f1061150b57610100808354040283529160200191611536565b820191906000526020600020905b81548152906001019060200180831161151957829003601f168201915b5050505050905061048f565b600065ffffffffffff82111561135f5760405162461bcd60e51b815260206004820152602660248201527f53616665436173743a2076616c756520646f65736e27742066697420696e203460448201527f382062697473000000000000000000000000000000000000000000000000000060648201526084016105de565b805460009080156115f1576115da836113e5600184612b30565b5464010000000090046001600160e01b03166115f4565b60005b9392505050565b816001600160a01b0316836001600160a01b03160361165c5760405162461bcd60e51b815260206004820152601960248201527f4552433732313a20617070726f766520746f2063616c6c65720000000000000060448201526064016105de565b6001600160a01b03838116600081815260056020908152604080832094871680845294825291829020805460ff191686151590811790915591519182527f17307eab39ab6107e8899845ad3d59bd9653f200f220920489ca2b5937696c31910160405180910390a3505050565b6116d4848484610f9d565b6116e084848484611d32565b610b695760405162461bcd60e51b815260206004820152603260248201527f4552433732313a207472616e7366657220746f206e6f6e20455243373231526560448201527f63656976657220696d706c656d656e746572000000000000000000000000000060648201526084016105de565b600061048f61175f6111b8565b836040517f19010000000000000000000000000000000000000000000000000000000000008152600281019290925260228201526042902090565b60008060006117ab87878787611e86565b915091506117b881611f4a565b5095945050505050565b6001600160a01b0381166000908152600c602052604090208054600181018255905b50919050565b60606117f582610e3c565b6000828152600660205260408120805461180e90612ae6565b80601f016020809104026020016040519081016040528092919081815260200182805461183a90612ae6565b80156118875780601f1061185c57610100808354040283529160200191611887565b820191906000526020600020905b81548152906001019060200180831161186a57829003601f168201915b5050505050905060006118b860408051808201909152600b81526a1a5c199cce8bcbdd195cdd60aa1b602082015290565b905080516000036118ca575092915050565b8151156118fc5780826040516020016118e4929190612b56565b60405160208183030381529060405292505050919050565b610f95846120af565b60006001600160e01b031982167f80ac58cd00000000000000000000000000000000000000000000000000000000148061196857506001600160e01b031982167f5b5e139f00000000000000000000000000000000000000000000000000000000145b8061048f57507f01ffc9a7000000000000000000000000000000000000000000000000000000006001600160e01b031983161461048f565b826001600160a01b0316846001600160a01b0316141580156119d857506000828152600d60205260409020546001600160a01b031615155b15610b69576000828152600d6020908152604080832080546001600160e01b03191690555182815284917f4e06b4e7000e659094299b3533b47b6aa8ad048e95e872d23d1f4ee55af89cfe9101610df0565b610b6984848484612135565b600081600003611a4857506000919050565b60006001611a5584612145565b901c6001901b90506001818481611a6e57611a6e612b85565b048201901c90506001818481611a8657611a86612b85565b048201901c90506001818481611a9e57611a9e612b85565b048201901c90506001818481611ab657611ab6612b85565b048201901c90506001818481611ace57611ace612b85565b048201901c90506001818481611ae657611ae6612b85565b048201901c90506001818481611afe57611afe612b85565b048201901c90506115f481828581611b1857611b18612b85565b046121d9565b60005b81831015611b74576000611b3584846121ef565b60008781526020902090915063ffffffff86169082015463ffffffff161115611b6057809250611b6e565b611b6b816001612b43565b93505b50611b21565b509392505050565b600061048f826108cb565b816001600160a01b0316836001600160a01b031614158015611ba95750600081115b1561067f576001600160a01b03831615611c51576001600160a01b0383166000908152600a602052604081208190611bec9061220a611be786612216565b612295565b6001600160e01b031691506001600160e01b03169150846001600160a01b03167fdec2bacdd2f05b59de34da9b523dff8be42e5e38e818c82fdb0bae774387a7248383604051611c46929190918252602082015260400190565b60405180910390a250505b6001600160a01b0382161561067f576001600160a01b0382166000908152600a602052604081208190611c8a906122de611be786612216565b6001600160e01b031691506001600160e01b03169150836001600160a01b03167fdec2bacdd2f05b59de34da9b523dff8be42e5e38e818c82fdb0bae774387a7248383604051611ce4929190918252602082015260400190565b60405180910390a25050505050565b60606000611d00836122ea565b604080516020808252818301909252919250600091906020820181803683375050509182525060208101929092525090565b60006001600160a01b0384163b15611e7e57604051630a85bd0160e11b81526001600160a01b0385169063150b7a0290611d76903390899088908890600401612b9b565b6020604051808303816000875af1925050508015611db1575060408051601f3d908101601f19168201909252611dae91810190612bdc565b60015b611e64573d808015611ddf576040519150601f19603f3d011682016040523d82523d6000602084013e611de4565b606091505b508051600003611e5c5760405162461bcd60e51b815260206004820152603260248201527f4552433732313a207472616e7366657220746f206e6f6e20455243373231526560448201527f63656976657220696d706c656d656e746572000000000000000000000000000060648201526084016105de565b805181602001fd5b6001600160e01b031916630a85bd0160e11b149050610f95565b506001610f95565b6000807f7fffffffffffffffffffffffffffffff5d576e7357a4501ddfe92f46681b20a0831115611ebd5750600090506003611f41565b6040805160008082526020820180845289905260ff881692820192909252606081018690526080810185905260019060a0016020604051602081039080840390855afa158015611f11573d6000803e3d6000fd5b5050604051601f1901519150506001600160a01b038116611f3a57600060019250925050611f41565b9150600090505b94509492505050565b6000816004811115611f5e57611f5e612bf9565b03611f665750565b6001816004811115611f7a57611f7a612bf9565b03611fc75760405162461bcd60e51b815260206004820152601860248201527f45434453413a20696e76616c6964207369676e6174757265000000000000000060448201526064016105de565b6002816004811115611fdb57611fdb612bf9565b036120285760405162461bcd60e51b815260206004820152601f60248201527f45434453413a20696e76616c6964207369676e6174757265206c656e6774680060448201526064016105de565b600381600481111561203c5761203c612bf9565b03610ea05760405162461bcd60e51b815260206004820152602260248201527f45434453413a20696e76616c6964207369676e6174757265202773272076616c60448201527f756500000000000000000000000000000000000000000000000000000000000060648201526084016105de565b60606120ba82610e3c565b60006120e460408051808201909152600b81526a1a5c199cce8bcbdd195cdd60aa1b602082015290565b9050600081511161210457604051806020016040528060008152506115f4565b8061210e8461232b565b60405160200161211f929190612b56565b6040516020818303038152906040529392505050565b6121408484836123cb565b610b69565b600080608083901c1561215a57608092831c92015b604083901c1561216c57604092831c92015b602083901c1561217e57602092831c92015b601083901c1561219057601092831c92015b600883901c156121a257600892831c92015b600483901c156121b457600492831c92015b600283901c156121c657600292831c92015b600183901c1561048f5760010192915050565b60008183106121e857816115f4565b5090919050565b60006121fe6002848418612c0f565b6115f490848416612b43565b60006115f48284612c31565b60006001600160e01b0382111561135f5760405162461bcd60e51b815260206004820152602760248201527f53616665436173743a2076616c756520646f65736e27742066697420696e203260448201527f323420626974730000000000000000000000000000000000000000000000000060648201526084016105de565b6000806122d16122b36122a6610aab565b65ffffffffffff166112e3565b6122c96122bf886115c0565b868863ffffffff16565b879190612441565b915091505b935093915050565b60006115f48284612c50565b600060ff8216601f81111561048f576040517fb3512b0c00000000000000000000000000000000000000000000000000000000815260040160405180910390fd5b606060006123388361244f565b600101905060008167ffffffffffffffff8111156123585761235861290c565b6040519080825280601f01601f191660200182016040528015612382576020820181803683370190505b5090508181016020015b600019017f3031323334353637383961626364656600000000000000000000000000000000600a86061a8153600a850494508461238c57509392505050565b6001600160a01b0383166123ed576123ea600b6122de611be784612216565b50505b6001600160a01b03821661240f5761240c600b61220a611be784612216565b50505b6001600160a01b0383811660009081526009602052604080822054858416835291205461067f92918216911683611b87565b6000806122d1858585612531565b6000807a184f03e93ff9f4daa797ed6e38ed64bf6a1f0100000000000000008310612498577a184f03e93ff9f4daa797ed6e38ed64bf6a1f010000000000000000830492506040015b6d04ee2d6d415b85acef810000000083106124c4576d04ee2d6d415b85acef8100000000830492506020015b662386f26fc1000083106124e257662386f26fc10000830492506010015b6305f5e10083106124fa576305f5e100830492506008015b612710831061250e57612710830492506004015b60648310612520576064830492506002015b600a831061048f5760010192915050565b82546000908190801561267a57600061254f876113e5600185612b30565b60408051808201909152905463ffffffff8082168084526401000000009092046001600160e01b0316602084015291925090871610156125d15760405162461bcd60e51b815260206004820152601b60248201527f436865636b706f696e743a2064656372656173696e67206b657973000000000060448201526064016105de565b805163ffffffff80881691160361261a57846125f2886113e5600186612b30565b80546001600160e01b03929092166401000000000263ffffffff90921691909117905561266a565b6040805180820190915263ffffffff80881682526001600160e01b0380881660208085019182528b54600181018d5560008d81529190912094519151909216640100000000029216919091179101555b6020015192508391506122d69050565b50506040805180820190915263ffffffff80851682526001600160e01b0380851660208085019182528854600181018a5560008a8152918220955192519093166401000000000291909316179201919091559050816122d6565b6001600160e01b031981168114610ea057600080fd5b6000602082840312156126fc57600080fd5b81356115f4816126d4565b60005b8381101561272257818101518382015260200161270a565b50506000910152565b60008151808452612743816020860160208601612707565b601f01601f19169290920160200192915050565b6020815260006115f4602083018461272b565b60006020828403121561277c57600080fd5b5035919050565b80356001600160a01b0381168114610bba57600080fd5b600080604083850312156127ad57600080fd5b6127b683612783565b946020939093013593505050565b6000806000606084860312156127d957600080fd5b6127e284612783565b92506127f060208501612783565b929592945050506040919091013590565b60006020828403121561281357600080fd5b6115f482612783565b7fff000000000000000000000000000000000000000000000000000000000000008816815260e06020820152600061285760e083018961272b565b8281036040840152612869818961272b565b606084018890526001600160a01b038716608085015260a0840186905283810360c08501528451808252602080870193509091019060005b818110156128bf5783518352602093840193909201916001016128a1565b50909b9a5050505050505050505050565b600080604083850312156128e357600080fd5b6128ec83612783565b91506020830135801515811461290157600080fd5b809150509250929050565b634e487b7160e01b600052604160045260246000fd5b6000806000806080858703121561293857600080fd5b61294185612783565b935061294f60208601612783565b925060408501359150606085013567ffffffffffffffff81111561297257600080fd5b8501601f8101871361298357600080fd5b803567ffffffffffffffff81111561299d5761299d61290c565b604051601f8201601f19908116603f0116810167ffffffffffffffff811182821017156129cc576129cc61290c565b6040528181528282016020018910156129e457600080fd5b8160208401602083013760006020838301015280935050505092959194509250565b60008060008060008060c08789031215612a1f57600080fd5b612a2887612783565b95506020870135945060408701359350606087013560ff81168114612a4c57600080fd5b9598949750929560808101359460a0909101359350915050565b600080600060608486031215612a7b57600080fd5b83359250612a8b60208501612783565b9150604084013567ffffffffffffffff81168114612aa857600080fd5b809150509250925092565b60008060408385031215612ac657600080fd5b612acf83612783565b9150612add60208401612783565b90509250929050565b600181811c90821680612afa57607f821691505b6020821081036117e457634e487b7160e01b600052602260045260246000fd5b634e487b7160e01b600052601160045260246000fd5b8181038181111561048f5761048f612b1a565b8082018082111561048f5761048f612b1a565b60008351612b68818460208801612707565b835190830190612b7c818360208801612707565b01949350505050565b634e487b7160e01b600052601260045260246000fd5b6001600160a01b03851681526001600160a01b0384166020820152826040820152608060608201526000612bd2608083018461272b565b9695505050505050565b600060208284031215612bee57600080fd5b81516115f4816126d4565b634e487b7160e01b600052602160045260246000fd5b600082612c2c57634e487b7160e01b600052601260045260246000fd5b500490565b6001600160e01b03828116828216039081111561048f5761048f612b1a565b6001600160e01b03818116838216019081111561048f5761048f612b1a56fea264697066735822122029f038cbe12e0510f1365e82753838741d189d440b398b3ba848a7ea83c61ffb64736f6c634300081b0033",
  "linkReferences": {},
  "deployedLinkReferences": {}
}