{
  "_format": "hh-sol-artifact-1",
  "contractName": "DaoVerse",
  "sourceName": "contracts/DaoVerse.sol",
  "abi": [
    {
      "inputs": [
        {
          "internalType": "string",
          "name": "_initBaseURI",
          "type": "string"
        }
      ],
      "stateMutability": "nonpayable",
      "type": "constructor"
    },
    {
      "inputs": [],
      "name": "InvalidShortString",
      "type": "error"
    },
    {
      "inputs": [
        {
          "internalType": "string",
          "name": "str",
          "type": "string"
        }
      ],
      "name": "StringTooLong",
      "type": "error"
    },
    {
      "anonymous": false,
      "inputs": [
        {
          "indexed": true,
          "internalType": "address",
          "name": "owner",
          "type": "address"
        },
        {
          "indexed": true,
          "internalType": "address",
          "name": "approved",
          "type": "address"
        },
        {
          "indexed": true,
          "internalType": "uint256",
          "name": "tokenId",
          "type": "uint256"
        }
      ],
      "name": "Approval",
      "type": "event"
    },
    {
      "anonymous": false,
      "inputs": [
        {
          "indexed": true,
          "internalType": "address",
          "name": "owner",
          "type": "address"
        },
        {
          "indexed": true,
          "internalType": "address",
          "name": "operator",
          "type": "address"
        },
        {
          "indexed": false,
          "internalType": "bool",
          "name": "approved",
          "type": "bool"
        }
      ],
      "name": "ApprovalForAll",
      "type": "event"
    },
    {
      "anonymous": false,
      "inputs": [
        {
          "indexed": false,
          "internalType": "uint256",
          "name": "_fromTokenId",
          "type": "uint256"
        },
        {
          "indexed": false,
          "internalType": "uint256",
          "name": "_toTokenId",
          "type": "uint256"
        }
      ],
      "name": "BatchMetadataUpdate",
      "type": "event"
    },
    {
      "anonymous": false,
      "inputs": [
        {
          "indexed": true,
          "internalType": "address",
          "name": "delegator",
          "type": "address"
        },
        {
          "indexed": true,
          "internalType": "address",
          "name": "fromDelegate",
          "type": "address"
        },
        {
          "indexed": true,
          "internalType": "address",
          "name": "toDelegate",
          "type": "address"
        }
      ],
      "name": "DelegateChanged",
      "type": "event"
    },
    {
      "anonymous": false,
      "inputs": [
        {
          "indexed": true,
          "internalType": "address",
          "name": "delegate",
          "type": "address"
        },
        {
          "indexed": false,
          "internalType": "uint256",
          "name": "previousBalance",
          "type": "uint256"
        },
        {
          "indexed": false,
          "internalType": "uint256",
          "name": "newBalance",
          "type": "uint256"
        }
      ],
      "name": "DelegateVotesChanged",
      "type": "event"
    },
    {
      "anonymous": false,
      "inputs": [
        {
          "indexed": false,
          "internalType": "address",
          "name": "owner",
          "type": "address"
        },
        {
          "indexed": false,
          "internalType": "uint256",
          "name": "id",
          "type": "uint256"
        }
      ],
      "name": "DestroyedRoom",
      "type": "event"
    },
    {
      "anonymous": false,
      "inputs": [],
      "name": "EIP712DomainChanged",
      "type": "event"
    },
    {
      "anonymous": false,
      "inputs": [
        {
          "indexed": false,
          "internalType": "uint256",
          "name": "_tokenId",
          "type": "uint256"
        }
      ],
      "name": "MetadataUpdate",
      "type": "event"
    },
    {
      "anonymous": false,
      "inputs": [
        {
          "indexed": true,
          "internalType": "address",
          "name": "owner",
          "type": "address"
        },
        {
          "indexed": true,
          "internalType": "uint256",
          "name": "id",
          "type": "uint256"
        },
        {
          "indexed": false,
          "internalType": "uint32",
          "name": "area",
          "type": "uint32"
        },
        {
          "indexed": false,
          "internalType": "string",
          "name": "name",
          "type": "string"
        }
      ],
      "name": "NewRoom",
      "type": "event"
    },
    {
      "anonymous": false,
      "inputs": [
        {
          "indexed": true,
          "internalType": "address",
          "name": "previousOwner",
          "type": "address"
        },
        {
          "indexed": true,
          "internalType": "address",
          "name": "newOwner",
          "type": "address"
        }
      ],
      "name": "OwnershipTransferred",
      "type": "event"
    },
    {
      "anonymous": false,
      "inputs": [
        {
          "indexed": true,
          "internalType": "address",
          "name": "from",
          "type": "address"
        },
        {
          "indexed": true,
          "internalType": "address",
          "name": "to",
          "type": "address"
        },
        {
          "indexed": true,
          "internalType": "uint256",
          "name": "tokenId",
          "type": "uint256"
        }
      ],
      "name": "Transfer",
      "type": "event"
    },
    {
      "anonymous": false,
      "inputs": [
        {
          "indexed": true,
          "internalType": "uint256",
          "name": "tokenId",
          "type": "uint256"
        },
        {
          "indexed": true,
          "internalType": "address",
          "name": "user",
          "type": "address"
        },
        {
          "indexed": false,
          "internalType": "uint64",
          "name": "expires",
          "type": "uint64"
        }
      ],
      "name": "UpdateUser",
      "type": "event"
    },
    {
      "inputs": [],
      "name": "CLOCK_MODE",
      "outputs": [
        {
          "internalType": "string",
          "name": "",
          "type": "string"
        }
      ],
      "stateMutability": "view",
      "type": "function"
    },
    {
      "inputs": [],
      "name": "DOMAIN_SEPARATOR",
      "outputs": [
        {
          "internalType": "bytes32",
          "name": "",
          "type": "bytes32"
        }
      ],
      "stateMutability": "view",
      "type": "function"
    },
    {
      "inputs": [
        {
          "internalType": "address",
          "name": "to",
          "type": "address"
        },
        {
          "internalType": "uint256",
          "name": "tokenId",
          "type": "uint256"
        }
      ],
      "name": "approve",
      "outputs": [],
      "stateMutability": "nonpayable",
      "type": "function"
    },
    {
      "inputs": [
        {
          "internalType": "address",
          "name": "owner",
          "type": "address"
        }
      ],
      "name": "balanceOf",
      "outputs": [
        {
          "internalType": "uint256",
          "name": "",
          "type": "uint256"
        }
      ],
      "stateMutability": "view",
      "type": "function"
    },
    {
      "inputs": [],
      "name": "baseURI",
      "outputs": [
        {
          "internalType": "string",
          "name": "",
          "type": "string"
        }
      ],
      "stateMutability": "view",
      "type": "function"
    },
    {
      "inputs": [
        {
          "internalType": "uint256",
          "name": "_tokenId",
          "type": "uint256"
        }
      ],
      "name": "burn",
      "outputs": [],
      "stateMutability": "nonpayable",
      "type": "function"
    },
    {
      "inputs": [],
      "name": "clock",
      "outputs": [
        {
          "internalType": "uint48",
          "name": "",
          "type": "uint48"
        }
      ],
      "stateMutability": "view",
      "type": "function"
    },
    {
      "inputs": [
        {
          "internalType": "address",
          "name": "delegatee",
          "type": "address"
        }
      ],
      "name": "delegate",
      "outputs": [],
      "stateMutability": "nonpayable",
      "type": "function"
    },
    {
      "inputs": [
        {
          "internalType": "address",
          "name": "delegatee",
          "type": "address"
        },
        {
          "internalType": "uint256",
          "name": "nonce",
          "type": "uint256"
        },
        {
          "internalType": "uint256",
          "name": "expiry",
          "type": "uint256"
        },
        {
          "internalType": "uint8",
          "name": "v",
          "type": "uint8"
        },
        {
          "internalType": "bytes32",
          "name": "r",
          "type": "bytes32"
        },
        {
          "internalType": "bytes32",
          "name": "s",
          "type": "bytes32"
        }
      ],
      "name": "delegateBySig",
      "outputs": [],
      "stateMutability": "nonpayable",
      "type": "function"
    },
    {
      "inputs": [
        {
          "internalType": "address",
          "name": "account",
          "type": "address"
        }
      ],
      "name": "delegates",
      "outputs": [
        {
          "internalType": "address",
          "name": "",
          "type": "address"
        }
      ],
      "stateMutability": "view",
      "type": "function"
    },
    {
      "inputs": [],
      "name": "eip712Domain",
      "outputs": [
        {
          "internalType": "bytes1",
          "name": "fields",
          "type": "bytes1"
        },
        {
          "internalType": "string",
          "name": "name",
          "type": "string"
        },
        {
          "internalType": "string",
          "name": "version",
          "type": "string"
        },
        {
          "internalType": "uint256",
          "name": "chainId",
          "type": "uint256"
        },
        {
          "internalType": "address",
          "name": "verifyingContract",
          "type": "address"
        },
        {
          "internalType": "bytes32",
          "name": "salt",
          "type": "bytes32"
        },
        {
          "internalType": "uint256[]",
          "name": "extensions",
          "type": "uint256[]"
        }
      ],
      "stateMutability": "view",
      "type": "function"
    },
    {
      "inputs": [
        {
          "internalType": "uint256",
          "name": "tokenId",
          "type": "uint256"
        }
      ],
      "name": "getApproved",
      "outputs": [
        {
          "internalType": "address",
          "name": "",
          "type": "address"
        }
      ],
      "stateMutability": "view",
      "type": "function"
    },
    {
      "inputs": [
        {
          "internalType": "uint256",
          "name": "timepoint",
          "type": "uint256"
        }
      ],
      "name": "getPastTotalSupply",
      "outputs": [
        {
          "internalType": "uint256",
          "name": "",
          "type": "uint256"
        }
      ],
      "stateMutability": "view",
      "type": "function"
    },
    {
      "inputs": [
        {
          "internalType": "address",
          "name": "account",
          "type": "address"
        },
        {
          "internalType": "uint256",
          "name": "timepoint",
          "type": "uint256"
        }
      ],
      "name": "getPastVotes",
      "outputs": [
        {
          "internalType": "uint256",
          "name": "",
          "type": "uint256"
        }
      ],
      "stateMutability": "view",
      "type": "function"
    },
    {
      "inputs": [
        {
          "internalType": "address",
          "name": "account",
          "type": "address"
        }
      ],
      "name": "getVotes",
      "outputs": [
        {
          "internalType": "uint256",
          "name": "",
          "type": "uint256"
        }
      ],
      "stateMutability": "view",
      "type": "function"
    },
    {
      "inputs": [
        {
          "internalType": "address",
          "name": "owner",
          "type": "address"
        },
        {
          "internalType": "address",
          "name": "operator",
          "type": "address"
        }
      ],
      "name": "isApprovedForAll",
      "outputs": [
        {
          "internalType": "bool",
          "name": "",
          "type": "bool"
        }
      ],
      "stateMutability": "view",
      "type": "function"
    },
    {
      "inputs": [
        {
          "internalType": "string",
          "name": "_tokenURI",
          "type": "string"
        },
        {
          "internalType": "uint32",
          "name": "_area",
          "type": "uint32"
        },
        {
          "internalType": "string",
          "name": "_name",
          "type": "string"
        }
      ],
      "name": "mint",
      "outputs": [],
      "stateMutability": "nonpayable",
      "type": "function"
    },
    {
      "inputs": [],
      "name": "name",
      "outputs": [
        {
          "internalType": "string",
          "name": "",
          "type": "string"
        }
      ],
      "stateMutability": "view",
      "type": "function"
    },
    {
      "inputs": [
        {
          "internalType": "address",
          "name": "owner",
          "type": "address"
        }
      ],
      "name": "nonces",
      "outputs": [
        {
          "internalType": "uint256",
          "name": "",
          "type": "uint256"
        }
      ],
      "stateMutability": "view",
      "type": "function"
    },
    {
      "inputs": [],
      "name": "owner",
      "outputs": [
        {
          "internalType": "address",
          "name": "",
          "type": "address"
        }
      ],
      "stateMutability": "view",
      "type": "function"
    },
    {
      "inputs": [
        {
          "internalType": "uint256",
          "name": "tokenId",
          "type": "uint256"
        }
      ],
      "name": "ownerOf",
      "outputs": [
        {
          "internalType": "address",
          "name": "",
          "type": "address"
        }
      ],
      "stateMutability": "view",
      "type": "function"
    },
    {
      "inputs": [],
      "name": "renounceOwnership",
      "outputs": [],
      "stateMutability": "nonpayable",
      "type": "function"
    },
    {
      "inputs": [
        {
          "internalType": "uint256",
          "name": "",
          "type": "uint256"
        }
      ],
      "name": "roomToOwner",
      "outputs": [
        {
          "internalType": "address",
          "name": "",
          "type": "address"
        }
      ],
      "stateMutability": "view",
      "type": "function"
    },
    {
      "inputs": [
        {
          "internalType": "uint256",
          "name": "",
          "type": "uint256"
        }
      ],
      "name": "rooms",
      "outputs": [
        {
          "internalType": "uint256",
          "name": "id",
          "type": "uint256"
        },
        {
          "internalType": "uint32",
          "name": "area",
          "type": "uint32"
        },
        {
          "internalType": "string",
          "name": "name",
          "type": "string"
        }
      ],
      "stateMutability": "view",
      "type": "function"
    },
    {
      "inputs": [
        {
          "internalType": "address",
          "name": "from",
          "type": "address"
        },
        {
          "internalType": "address",
          "name": "to",
          "type": "address"
        },
        {
          "internalType": "uint256",
          "name": "tokenId",
          "type": "uint256"
        }
      ],
      "name": "safeTransferFrom",
      "outputs": [],
      "stateMutability": "nonpayable",
      "type": "function"
    },
    {
      "inputs": [
        {
          "internalType": "address",
          "name": "from",
          "type": "address"
        },
        {
          "internalType": "address",
          "name": "to",
          "type": "address"
        },
        {
          "internalType": "uint256",
          "name": "tokenId",
          "type": "uint256"
        },
        {
          "internalType": "bytes",
          "name": "data",
          "type": "bytes"
        }
      ],
      "name": "safeTransferFrom",
      "outputs": [],
      "stateMutability": "nonpayable",
      "type": "function"
    },
    {
      "inputs": [
        {
          "internalType": "address",
          "name": "operator",
          "type": "address"
        },
        {
          "internalType": "bool",
          "name": "approved",
          "type": "bool"
        }
      ],
      "name": "setApprovalForAll",
      "outputs": [],
      "stateMutability": "nonpayable",
      "type": "function"
    },
    {
      "inputs": [
        {
          "internalType": "string",
          "name": "_newBaseURI",
          "type": "string"
        }
      ],
      "name": "setBaseURI",
      "outputs": [],
      "stateMutability": "nonpayable",
      "type": "function"
    },
    {
      "inputs": [
        {
          "internalType": "uint256",
          "name": "tokenId",
          "type": "uint256"
        },
        {
          "internalType": "address",
          "name": "user",
          "type": "address"
        },
        {
          "internalType": "uint64",
          "name": "expires",
          "type": "uint64"
        }
      ],
      "name": "setUser",
      "outputs": [],
      "stateMutability": "nonpayable",
      "type": "function"
    },
    {
      "inputs": [
        {
          "internalType": "bytes4",
          "name": "interfaceId",
          "type": "bytes4"
        }
      ],
      "name": "supportsInterface",
      "outputs": [
        {
          "internalType": "bool",
          "name": "",
          "type": "bool"
        }
      ],
      "stateMutability": "view",
      "type": "function"
    },
    {
      "inputs": [],
      "name": "symbol",
      "outputs": [
        {
          "internalType": "string",
          "name": "",
          "type": "string"
        }
      ],
      "stateMutability": "view",
      "type": "function"
    },
    {
      "inputs": [
        {
          "internalType": "uint256",
          "name": "tokenId",
          "type": "uint256"
        }
      ],
      "name": "tokenURI",
      "outputs": [
        {
          "internalType": "string",
          "name": "",
          "type": "string"
        }
      ],
      "stateMutability": "view",
      "type": "function"
    },
    {
      "inputs": [
        {
          "internalType": "address",
          "name": "from",
          "type": "address"
        },
        {
          "internalType": "address",
          "name": "to",
          "type": "address"
        },
        {
          "internalType": "uint256",
          "name": "tokenId",
          "type": "uint256"
        }
      ],
      "name": "transferFrom",
      "outputs": [],
      "stateMutability": "nonpayable",
      "type": "function"
    },
    {
      "inputs": [
        {
          "internalType": "address",
          "name": "newOwner",
          "type": "address"
        }
      ],
      "name": "transferOwnership",
      "outputs": [],
      "stateMutability": "nonpayable",
      "type": "function"
    },
    {
      "inputs": [
        {
          "internalType": "uint256",
          "name": "tokenId",
          "type": "uint256"
        }
      ],
      "name": "userExpires",
      "outputs": [
        {
          "internalType": "uint256",
          "name": "",
          "type": "uint256"
        }
      ],
      "stateMutability": "view",
      "type": "function"
    },
    {
      "inputs": [
        {
          "internalType": "uint256",
          "name": "tokenId",
          "type": "uint256"
        }
      ],
      "name": "userOf",
      "outputs": [
        {
          "internalType": "address",
          "name": "",
          "type": "address"
        }
      ],
      "stateMutability": "view",
      "type": "function"
    }
  ],
  "bytecode": "0x61016060405234801561001157600080fd5b50604051613e68380380613e68833981016040819052610030916102ef565b6040518060400160405280600881526020016744616f566572736560c01b81525060405180604001604052806002815260200161464d60f01b81525081604051806040016040528060018152602001603160f81b81525083838160009081610098919061042a565b5060016100a5828261042a565b506100b591508390506007610175565b610120526100c4816008610175565b61014052815160208084019190912060e052815190820120610100524660a05261015160e05161010051604080517f8b73c3c69bb8fe3d512ecc4cf759cc79239f7b179b0ffacaa9a75d522b39400f60208201529081019290925260608201524660808201523060a082015260009060c00160405160208183030381529060405280519060200120905090565b60805250503060c052506101669050336101a8565b61016f816101fa565b5061053f565b60006020835110156101915761018a83610212565b90506101a2565b8161019c848261042a565b5060ff90505b92915050565b600e80546001600160a01b038381166001600160a01b0319831681179093556040519116919082907f8be0079c531659141344cd1fd0a4f28419497f9722a3daafe3b4186f6b6457e090600090a35050565b610202610259565b601061020e828261042a565b5050565b600080829050601f81511115610246578260405163305a27a960e01b815260040161023d91906104e8565b60405180910390fd5b80516102518261051b565b179392505050565b600e546001600160a01b031633146102b35760405162461bcd60e51b815260206004820181905260248201527f4f776e61626c653a2063616c6c6572206973206e6f7420746865206f776e6572604482015260640161023d565b565b634e487b7160e01b600052604160045260246000fd5b60005b838110156102e65781810151838201526020016102ce565b50506000910152565b60006020828403121561030157600080fd5b81516001600160401b0381111561031757600080fd5b8201601f8101841361032857600080fd5b80516001600160401b03811115610341576103416102b5565b604051601f8201601f19908116603f011681016001600160401b038111828210171561036f5761036f6102b5565b60405281815282820160200186101561038757600080fd5b6103988260208301602086016102cb565b95945050505050565b600181811c908216806103b557607f821691505b6020821081036103d557634e487b7160e01b600052602260045260246000fd5b50919050565b601f82111561042557806000526020600020601f840160051c810160208510156104025750805b601f840160051c820191505b81811015610422576000815560010161040e565b50505b505050565b81516001600160401b03811115610443576104436102b5565b6104578161045184546103a1565b846103db565b6020601f82116001811461048b57600083156104735750848201515b600019600385901b1c1916600184901b178455610422565b600084815260208120601f198516915b828110156104bb578785015182556020948501946001909201910161049b565b50848210156104d95786840151600019600387901b60f8161c191681555b50505050600190811b01905550565b60208152600082518060208401526105078160408501602087016102cb565b601f01601f19169190910160400192915050565b805160208083015191908110156103d55760001960209190910360031b1b16919050565b60805160a05160c05160e0516101005161012051610140516138cf6105996000396000610ce001526000610cb50152600061179901526000611771015260006116cc015260006116f60152600061172001526138cf6000f3fe608060405234801561001057600080fd5b506004361061025c5760003560e01c8063715018a611610145578063a22cb465116100bd578063c3cda5201161008c578063e030565e11610071578063e030565e1461054a578063e985e9c51461055d578063f2fde38b1461059957600080fd5b8063c3cda52014610524578063c87b56dd1461053757600080fd5b8063a22cb465146104d8578063b2faa342146104eb578063b88d4fde146104fe578063c2f1f14a1461051157600080fd5b80638e539e8c1161011457806391ddadf4116100f957806391ddadf41461049e57806395d89b41146104bd5780639ab24eb0146104c557600080fd5b80638e539e8c1461045a5780638fc88c481461046d57600080fd5b8063715018a6146104135780637ecebe001461041b57806384b0196e1461042e5780638da5cb5b1461044957600080fd5b806342966c68116101d85780635c19a95c116101a75780636c0360eb1161018c5780636c0360eb146103cf5780636ca70115146103d757806370a082311461040057600080fd5b80635c19a95c146103a95780636352211e146103bc57600080fd5b806342966c681461034f5780634bf5d7e91461036257806355f804b31461036a578063587cde1e1461037d57600080fd5b80631bae0ac81161022f5780633644e515116102145780633644e515146103135780633a46b1a81461032957806342842e0e1461033c57600080fd5b80631bae0ac8146102de57806323b872dd1461030057600080fd5b806301ffc9a71461026157806306fdde0314610289578063081812fc1461029e578063095ea7b3146102c9575b600080fd5b61027461026f3660046130cf565b6105ac565b60405190151581526020015b60405180910390f35b6102916105f0565b604051610280919061313c565b6102b16102ac36600461314f565b610682565b6040516001600160a01b039091168152602001610280565b6102dc6102d736600461317f565b6106a9565b005b6102f16102ec36600461314f565b6107df565b604051610280939291906131a9565b6102dc61030e3660046131d7565b6108a5565b61031b61091c565b604051908152602001610280565b61031b61033736600461317f565b61092b565b6102dc61034a3660046131d7565b6109c5565b6102dc61035d36600461314f565b6109e0565b610291610a2d565b6102dc6103783660046132c4565b610ac5565b6102b161038b3660046132f9565b6001600160a01b039081166000908152600960205260409020541690565b6102dc6103b73660046132f9565b610add565b6102b16103ca36600461314f565b610ae8565b610291610b4d565b6102b16103e536600461314f565b6012602052600090815260409020546001600160a01b031681565b61031b61040e3660046132f9565b610bdb565b6102dc610c75565b61031b6104293660046132f9565b610c89565b610436610ca7565b6040516102809796959493929190613314565b600e546001600160a01b03166102b1565b61031b61046836600461314f565b610d4c565b61031b61047b36600461314f565b6000908152600d6020526040902054600160a01b900467ffffffffffffffff1690565b6104a6610dcf565b60405165ffffffffffff9091168152602001610280565b610291610dda565b61031b6104d33660046132f9565b610de9565b6102dc6104e63660046133c8565b610e0a565b6102dc6104f9366004613404565b610e15565b6102dc61050c366004613488565b610f85565b6102b161051f36600461314f565b611003565b6102dc610532366004613504565b611053565b61029161054536600461314f565b611189565b6102dc610558366004613564565b611194565b61027461056b3660046135b1565b6001600160a01b03918216600090815260056020908152604080832093909416825291909152205460ff1690565b6102dc6105a73660046132f9565b611292565b60006001600160e01b031982167fad092b5c0000000000000000000000000000000000000000000000000000000014806105ea57506105ea82611322565b92915050565b6060600080546105ff906135e4565b80601f016020809104026020016040519081016040528092919081815260200182805461062b906135e4565b80156106785780601f1061064d57610100808354040283529160200191610678565b820191906000526020600020905b81548152906001019060200180831161065b57829003601f168201915b5050505050905090565b600061068d82611360565b506000908152600460205260409020546001600160a01b031690565b60006106b482610ae8565b9050806001600160a01b0316836001600160a01b0316036107425760405162461bcd60e51b815260206004820152602160248201527f4552433732313a20617070726f76616c20746f2063757272656e74206f776e6560448201527f720000000000000000000000000000000000000000000000000000000000000060648201526084015b60405180910390fd5b336001600160a01b038216148061075e575061075e813361056b565b6107d05760405162461bcd60e51b815260206004820152603d60248201527f4552433732313a20617070726f76652063616c6c6572206973206e6f7420746f60448201527f6b656e206f776e6572206f7220617070726f76656420666f7220616c6c0000006064820152608401610739565b6107da83836113c4565b505050565b601181815481106107ef57600080fd5b600091825260209091206003909102018054600182015460028301805492945063ffffffff9091169291610822906135e4565b80601f016020809104026020016040519081016040528092919081815260200182805461084e906135e4565b801561089b5780601f106108705761010080835404028352916020019161089b565b820191906000526020600020905b81548152906001019060200180831161087e57829003601f168201915b5050505050905083565b6108af3382611432565b6109115760405162461bcd60e51b815260206004820152602d60248201527f4552433732313a2063616c6c6572206973206e6f7420746f6b656e206f776e6560448201526c1c881bdc88185c1c1c9bdd9959609a1b6064820152608401610739565b6107da8383836114b1565b60006109266116bf565b905090565b6000610935610dcf565b65ffffffffffff16821061098b5760405162461bcd60e51b815260206004820152601460248201527f566f7465733a20667574757265206c6f6f6b75700000000000000000000000006044820152606401610739565b6109b5610997836117ea565b6001600160a01b0385166000908152600a602052604090209061186a565b6001600160e01b03169392505050565b6107da83838360405180602001604052806000815250610f85565b6109e861191f565b6109f181611979565b60408051338152602081018390527f968b506a2f7cac8b9ef9c4c112f804a654c143b8c994bc6be26531b93aac6557910160405180910390a150565b606043610a38610dcf565b65ffffffffffff1614610a8d5760405162461bcd60e51b815260206004820152601860248201527f566f7465733a2062726f6b656e20636c6f636b206d6f646500000000000000006044820152606401610739565b5060408051808201909152601d81527f6d6f64653d626c6f636b6e756d6265722666726f6d3d64656661756c74000000602082015290565b610acd61191f565b6010610ad98282613666565b5050565b33610ad98183611982565b6000818152600260205260408120546001600160a01b0316806105ea5760405162461bcd60e51b815260206004820152601860248201527f4552433732313a20696e76616c696420746f6b656e20494400000000000000006044820152606401610739565b60108054610b5a906135e4565b80601f0160208091040260200160405190810160405280929190818152602001828054610b86906135e4565b8015610bd35780601f10610ba857610100808354040283529160200191610bd3565b820191906000526020600020905b815481529060010190602001808311610bb657829003601f168201915b505050505081565b60006001600160a01b038216610c595760405162461bcd60e51b815260206004820152602960248201527f4552433732313a2061646472657373207a65726f206973206e6f74206120766160448201527f6c6964206f776e657200000000000000000000000000000000000000000000006064820152608401610739565b506001600160a01b031660009081526003602052604090205490565b610c7d61191f565b610c8760006119f4565b565b6001600160a01b0381166000908152600c60205260408120546105ea565b600060608082808083610cdb7f00000000000000000000000000000000000000000000000000000000000000006007611a46565b610d067f00000000000000000000000000000000000000000000000000000000000000006008611a46565b604080516000808252602082019092527f0f000000000000000000000000000000000000000000000000000000000000009b939a50919850469750309650945092509050565b6000610d56610dcf565b65ffffffffffff168210610dac5760405162461bcd60e51b815260206004820152601460248201527f566f7465733a20667574757265206c6f6f6b75700000000000000000000000006044820152606401610739565b610dc0610db8836117ea565b600b9061186a565b6001600160e01b031692915050565b600061092643611af1565b6060600180546105ff906135e4565b6001600160a01b0381166000908152600a60205260408120610dc090611b6f565b610ad9338383611baa565b610e1d61191f565b6000610e28600f5490565b9050610e38600f80546001019055565b6040805160608101825282815263ffffffff858116602083019081529282018581526011805460018101825560009190915283517f31ecc21a745e3968a04e9570e4425bc18fa8019c68028196b546d1669c200c68600390920291820190815594517f31ecc21a745e3968a04e9570e4425bc18fa8019c68028196b546d1669c200c698201805463ffffffff19169190941617909255519192839290917f31ecc21a745e3968a04e9570e4425bc18fa8019c68028196b546d1669c200c6a0190610f029082613666565b505050600082815260126020526040902080546001600160a01b03191633908117909155610f309083611c78565b610f3a8286611c92565b81336001600160a01b03167f174f5f2d02c363a4962afa0eacd1e415b6be594fe6f5110712f1481f27cc52b78686604051610f76929190613725565b60405180910390a35050505050565b610f8f3383611432565b610ff15760405162461bcd60e51b815260206004820152602d60248201527f4552433732313a2063616c6c6572206973206e6f7420746f6b656e206f776e6560448201526c1c881bdc88185c1c1c9bdd9959609a1b6064820152608401610739565b610ffd84848484611d6c565b50505050565b6000818152600d602052604081205442600160a01b90910467ffffffffffffffff161061104657506000908152600d60205260409020546001600160a01b031690565b506000919050565b919050565b834211156110a35760405162461bcd60e51b815260206004820152601860248201527f566f7465733a207369676e6174757265206578706972656400000000000000006044820152606401610739565b604080517fe48329057bfd03d55e49b547132e39cffd9c1820ad7b9d4c5307691425d15adf60208201526001600160a01b03881691810191909152606081018690526080810185905260009061111d906111159060a00160405160208183030381529060405280519060200120611dea565b858585611e32565b905061112881611e5a565b86146111765760405162461bcd60e51b815260206004820152601460248201527f566f7465733a20696e76616c6964206e6f6e63650000000000000000000000006044820152606401610739565b6111808188611982565b50505050505050565b60606105ea82611e82565b61119e3384611432565b6112105760405162461bcd60e51b815260206004820152603260248201527f455243343930373a207472616e736665722063616c6c6572206973206e6f742060448201527f6f776e6572206e6f7220617070726f76656400000000000000000000000000006064820152608401610739565b6000838152600d602090815260409182902080546001600160a01b0386166001600160e01b03199091168117600160a01b67ffffffffffffffff871690810291909117835593519384529092909186917f4e06b4e7000e659094299b3533b47b6aa8ad048e95e872d23d1f4ee55af89cfe91015b60405180910390a350505050565b61129a61191f565b6001600160a01b0381166113165760405162461bcd60e51b815260206004820152602660248201527f4f776e61626c653a206e6577206f776e657220697320746865207a65726f206160448201527f64647265737300000000000000000000000000000000000000000000000000006064820152608401610739565b61131f816119f4565b50565b60006001600160e01b031982167f490649060000000000000000000000000000000000000000000000000000000014806105ea57506105ea82611f9d565b6000818152600260205260409020546001600160a01b031661131f5760405162461bcd60e51b815260206004820152601860248201527f4552433732313a20696e76616c696420746f6b656e20494400000000000000006044820152606401610739565b600081815260046020526040902080546001600160a01b0319166001600160a01b03841690811790915581906113f982610ae8565b6001600160a01b03167f8c5be1e5ebec7d5bd14f71427d1e84f3dd0314c0f7b2291e5b200ac8c7c3b92560405160405180910390a45050565b60008061143e83610ae8565b9050806001600160a01b0316846001600160a01b0316148061148557506001600160a01b0380821660009081526005602090815260408083209388168352929052205460ff165b806114a95750836001600160a01b031661149e84610682565b6001600160a01b0316145b949350505050565b826001600160a01b03166114c482610ae8565b6001600160a01b0316146115285760405162461bcd60e51b815260206004820152602560248201527f4552433732313a207472616e736665722066726f6d20696e636f72726563742060448201526437bbb732b960d91b6064820152608401610739565b6001600160a01b0382166115a35760405162461bcd60e51b8152602060048201526024808201527f4552433732313a207472616e7366657220746f20746865207a65726f2061646460448201527f72657373000000000000000000000000000000000000000000000000000000006064820152608401610739565b6115b08383836001612038565b826001600160a01b03166115c382610ae8565b6001600160a01b0316146116275760405162461bcd60e51b815260206004820152602560248201527f4552433732313a207472616e736665722066726f6d20696e636f72726563742060448201526437bbb732b960d91b6064820152608401610739565b600081815260046020908152604080832080546001600160a01b03199081169091556001600160a01b0387811680865260038552838620805460001901905590871680865283862080546001019055868652600290945282852080549092168417909155905184937fddf252ad1be2c89b69c2b068fc378daa952ba7f163c4a11628f55a4df523b3ef91a46107da83838360016120c2565b6000306001600160a01b037f00000000000000000000000000000000000000000000000000000000000000001614801561171857507f000000000000000000000000000000000000000000000000000000000000000046145b1561174257507f000000000000000000000000000000000000000000000000000000000000000090565b610926604080517f8b73c3c69bb8fe3d512ecc4cf759cc79239f7b179b0ffacaa9a75d522b39400f60208201527f0000000000000000000000000000000000000000000000000000000000000000918101919091527f000000000000000000000000000000000000000000000000000000000000000060608201524660808201523060a082015260009060c00160405160208183030381529060405280519060200120905090565b600063ffffffff8211156118665760405162461bcd60e51b815260206004820152602660248201527f53616665436173743a2076616c756520646f65736e27742066697420696e203360448201527f32206269747300000000000000000000000000000000000000000000000000006064820152608401610739565b5090565b8154600090818160058111156118c7576000611885846120ce565b61188f908561375a565b60008881526020902090915081015463ffffffff90811690871610156118b7578091506118c5565b6118c281600161376d565b92505b505b60006118d5878785856121b6565b90508015611911576118fa876118ec60018461375a565b600091825260209091200190565b5464010000000090046001600160e01b0316611914565b60005b979650505050505050565b600e546001600160a01b03163314610c875760405162461bcd60e51b815260206004820181905260248201527f4f776e61626c653a2063616c6c6572206973206e6f7420746865206f776e65726044820152606401610739565b61131f81612214565b6001600160a01b0382811660008181526009602052604080822080548686166001600160a01b0319821681179092559151919094169392849290917f3134e8a2e6d97e929a7e54011ea5485d7d196dd5f0ba4d4ef95803e8e3fc257f9190a46107da81836119ef86612254565b61225f565b600e80546001600160a01b038381166001600160a01b0319831681179093556040519116919082907f8be0079c531659141344cd1fd0a4f28419497f9722a3daafe3b4186f6b6457e090600090a35050565b606060ff8314611a6057611a59836123cb565b90506105ea565b818054611a6c906135e4565b80601f0160208091040260200160405190810160405280929190818152602001828054611a98906135e4565b8015611ae55780601f10611aba57610100808354040283529160200191611ae5565b820191906000526020600020905b815481529060010190602001808311611ac857829003601f168201915b505050505090506105ea565b600065ffffffffffff8211156118665760405162461bcd60e51b815260206004820152602660248201527f53616665436173743a2076616c756520646f65736e27742066697420696e203460448201527f38206269747300000000000000000000000000000000000000000000000000006064820152608401610739565b80546000908015611ba057611b89836118ec60018461375a565b5464010000000090046001600160e01b0316611ba3565b60005b9392505050565b816001600160a01b0316836001600160a01b031603611c0b5760405162461bcd60e51b815260206004820152601960248201527f4552433732313a20617070726f766520746f2063616c6c6572000000000000006044820152606401610739565b6001600160a01b03838116600081815260056020908152604080832094871680845294825291829020805460ff191686151590811790915591519182527f17307eab39ab6107e8899845ad3d59bd9653f200f220920489ca2b5937696c31910160405180910390a3505050565b610ad982826040518060200160405280600081525061240a565b6000828152600260205260409020546001600160a01b0316611d1c5760405162461bcd60e51b815260206004820152602e60248201527f45524337323155524953746f726167653a2055524920736574206f66206e6f6e60448201527f6578697374656e7420746f6b656e0000000000000000000000000000000000006064820152608401610739565b6000828152600660205260409020611d348282613666565b506040518281527ff8e1a15aba9398e019f0b49df1a4fde98ee17ae345cb5f6b5e2c27f5033e8ce79060200160405180910390a15050565b611d778484846114b1565b611d8384848484612488565b610ffd5760405162461bcd60e51b815260206004820152603260248201527f4552433732313a207472616e7366657220746f206e6f6e20455243373231526560448201527131b2b4bb32b91034b6b83632b6b2b73a32b960711b6064820152608401610739565b60006105ea611df76116bf565b836040517f19010000000000000000000000000000000000000000000000000000000000008152600281019290925260228201526042902090565b6000806000611e43878787876125d1565b91509150611e5081612695565b5095945050505050565b6001600160a01b0381166000908152600c602052604090208054600181018255905b50919050565b6060611e8d82611360565b60008281526006602052604081208054611ea6906135e4565b80601f0160208091040260200160405190810160405280929190818152602001828054611ed2906135e4565b8015611f1f5780601f10611ef457610100808354040283529160200191611f1f565b820191906000526020600020905b815481529060010190602001808311611f0257829003601f168201915b505050505090506000611f5060408051808201909152600b81526a1a5c199cce8bcbdd195cdd60aa1b602082015290565b90508051600003611f62575092915050565b815115611f94578082604051602001611f7c929190613780565b60405160208183030381529060405292505050919050565b6114a9846127fa565b60006001600160e01b031982167f80ac58cd00000000000000000000000000000000000000000000000000000000148061200057506001600160e01b031982167f5b5e139f00000000000000000000000000000000000000000000000000000000145b806105ea57507f01ffc9a7000000000000000000000000000000000000000000000000000000006001600160e01b03198316146105ea565b826001600160a01b0316846001600160a01b03161415801561207057506000828152600d60205260409020546001600160a01b031615155b15610ffd576000828152600d6020908152604080832080546001600160e01b03191690555182815284917f4e06b4e7000e659094299b3533b47b6aa8ad048e95e872d23d1f4ee55af89cfe9101611284565b610ffd84848484612880565b6000816000036120e057506000919050565b600060016120ed84612890565b901c6001901b90506001818481612106576121066137af565b048201901c9050600181848161211e5761211e6137af565b048201901c90506001818481612136576121366137af565b048201901c9050600181848161214e5761214e6137af565b048201901c90506001818481612166576121666137af565b048201901c9050600181848161217e5761217e6137af565b048201901c90506001818481612196576121966137af565b048201901c9050611ba3818285816121b0576121b06137af565b04612924565b60005b8183101561220c5760006121cd848461293a565b60008781526020902090915063ffffffff86169082015463ffffffff1611156121f857809250612206565b61220381600161376d565b93505b506121b9565b509392505050565b61221d81612955565b60008181526006602052604090208054612236906135e4565b15905061131f57600081815260066020526040812061131f9161306f565b60006105ea82610bdb565b816001600160a01b0316836001600160a01b0316141580156122815750600081115b156107da576001600160a01b03831615612329576001600160a01b0383166000908152600a6020526040812081906122c490612a026122bf86612a0e565b612a8d565b6001600160e01b031691506001600160e01b03169150846001600160a01b03167fdec2bacdd2f05b59de34da9b523dff8be42e5e38e818c82fdb0bae774387a724838360405161231e929190918252602082015260400190565b60405180910390a250505b6001600160a01b038216156107da576001600160a01b0382166000908152600a60205260408120819061236290612ad66122bf86612a0e565b6001600160e01b031691506001600160e01b03169150836001600160a01b03167fdec2bacdd2f05b59de34da9b523dff8be42e5e38e818c82fdb0bae774387a72483836040516123bc929190918252602082015260400190565b60405180910390a25050505050565b606060006123d883612ae2565b604080516020808252818301909252919250600091906020820181803683375050509182525060208101929092525090565b6124148383612b23565b6124216000848484612488565b6107da5760405162461bcd60e51b815260206004820152603260248201527f4552433732313a207472616e7366657220746f206e6f6e20455243373231526560448201527131b2b4bb32b91034b6b83632b6b2b73a32b960711b6064820152608401610739565b60006001600160a01b0384163b156125c957604051630a85bd0160e11b81526001600160a01b0385169063150b7a02906124cc9033908990889088906004016137c5565b6020604051808303816000875af1925050508015612507575060408051601f3d908101601f1916820190925261250491810190613806565b60015b6125af573d808015612535576040519150601f19603f3d011682016040523d82523d6000602084013e61253a565b606091505b5080516000036125a75760405162461bcd60e51b815260206004820152603260248201527f4552433732313a207472616e7366657220746f206e6f6e20455243373231526560448201527131b2b4bb32b91034b6b83632b6b2b73a32b960711b6064820152608401610739565b805181602001fd5b6001600160e01b031916630a85bd0160e11b1490506114a9565b5060016114a9565b6000807f7fffffffffffffffffffffffffffffff5d576e7357a4501ddfe92f46681b20a0831115612608575060009050600361268c565b6040805160008082526020820180845289905260ff881692820192909252606081018690526080810185905260019060a0016020604051602081039080840390855afa15801561265c573d6000803e3d6000fd5b5050604051601f1901519150506001600160a01b0381166126855760006001925092505061268c565b9150600090505b94509492505050565b60008160048111156126a9576126a9613823565b036126b15750565b60018160048111156126c5576126c5613823565b036127125760405162461bcd60e51b815260206004820152601860248201527f45434453413a20696e76616c6964207369676e617475726500000000000000006044820152606401610739565b600281600481111561272657612726613823565b036127735760405162461bcd60e51b815260206004820152601f60248201527f45434453413a20696e76616c6964207369676e6174757265206c656e677468006044820152606401610739565b600381600481111561278757612787613823565b0361131f5760405162461bcd60e51b815260206004820152602260248201527f45434453413a20696e76616c6964207369676e6174757265202773272076616c60448201527f75650000000000000000000000000000000000000000000000000000000000006064820152608401610739565b606061280582611360565b600061282f60408051808201909152600b81526a1a5c199cce8bcbdd195cdd60aa1b602082015290565b9050600081511161284f5760405180602001604052806000815250611ba3565b8061285984612cc6565b60405160200161286a929190613780565b6040516020818303038152906040529392505050565b61288b848483612d66565b610ffd565b600080608083901c156128a557608092831c92015b604083901c156128b757604092831c92015b602083901c156128c957602092831c92015b601083901c156128db57601092831c92015b600883901c156128ed57600892831c92015b600483901c156128ff57600492831c92015b600283901c1561291157600292831c92015b600183901c156105ea5760010192915050565b60008183106129335781611ba3565b5090919050565b60006129496002848418613839565b611ba39084841661376d565b600061296082610ae8565b9050612970816000846001612038565b61297982610ae8565b600083815260046020908152604080832080546001600160a01b03199081169091556001600160a01b0385168085526003845282852080546000190190558785526002909352818420805490911690555192935084927fddf252ad1be2c89b69c2b068fc378daa952ba7f163c4a11628f55a4df523b3ef908390a4610ad98160008460016120c2565b6000611ba3828461385b565b60006001600160e01b038211156118665760405162461bcd60e51b815260206004820152602760248201527f53616665436173743a2076616c756520646f65736e27742066697420696e203260448201527f32342062697473000000000000000000000000000000000000000000000000006064820152608401610739565b600080612ac9612aab612a9e610dcf565b65ffffffffffff166117ea565b612ac1612ab788611b6f565b868863ffffffff16565b879190612ddc565b915091505b935093915050565b6000611ba3828461387a565b600060ff8216601f8111156105ea576040517fb3512b0c00000000000000000000000000000000000000000000000000000000815260040160405180910390fd5b6001600160a01b038216612b795760405162461bcd60e51b815260206004820181905260248201527f4552433732313a206d696e7420746f20746865207a65726f20616464726573736044820152606401610739565b6000818152600260205260409020546001600160a01b031615612bde5760405162461bcd60e51b815260206004820152601c60248201527f4552433732313a20746f6b656e20616c7265616479206d696e746564000000006044820152606401610739565b612bec600083836001612038565b6000818152600260205260409020546001600160a01b031615612c515760405162461bcd60e51b815260206004820152601c60248201527f4552433732313a20746f6b656e20616c7265616479206d696e746564000000006044820152606401610739565b6001600160a01b038216600081815260036020908152604080832080546001019055848352600290915280822080546001600160a01b0319168417905551839291907fddf252ad1be2c89b69c2b068fc378daa952ba7f163c4a11628f55a4df523b3ef908290a4610ad96000838360016120c2565b60606000612cd383612dea565b600101905060008167ffffffffffffffff811115612cf357612cf3613214565b6040519080825280601f01601f191660200182016040528015612d1d576020820181803683370190505b5090508181016020015b600019017f3031323334353637383961626364656600000000000000000000000000000000600a86061a8153600a8504945084612d2757509392505050565b6001600160a01b038316612d8857612d85600b612ad66122bf84612a0e565b50505b6001600160a01b038216612daa57612da7600b612a026122bf84612a0e565b50505b6001600160a01b038381166000908152600960205260408082205485841683529120546107da9291821691168361225f565b600080612ac9858585612ecc565b6000807a184f03e93ff9f4daa797ed6e38ed64bf6a1f0100000000000000008310612e33577a184f03e93ff9f4daa797ed6e38ed64bf6a1f010000000000000000830492506040015b6d04ee2d6d415b85acef81000000008310612e5f576d04ee2d6d415b85acef8100000000830492506020015b662386f26fc100008310612e7d57662386f26fc10000830492506010015b6305f5e1008310612e95576305f5e100830492506008015b6127108310612ea957612710830492506004015b60648310612ebb576064830492506002015b600a83106105ea5760010192915050565b825460009081908015613015576000612eea876118ec60018561375a565b60408051808201909152905463ffffffff8082168084526401000000009092046001600160e01b031660208401529192509087161015612f6c5760405162461bcd60e51b815260206004820152601b60248201527f436865636b706f696e743a2064656372656173696e67206b65797300000000006044820152606401610739565b805163ffffffff808816911603612fb55784612f8d886118ec60018661375a565b80546001600160e01b03929092166401000000000263ffffffff909216919091179055613005565b6040805180820190915263ffffffff80881682526001600160e01b0380881660208085019182528b54600181018d5560008d81529190912094519151909216640100000000029216919091179101555b602001519250839150612ace9050565b50506040805180820190915263ffffffff80851682526001600160e01b0380851660208085019182528854600181018a5560008a815291822095519251909316640100000000029190931617920191909155905081612ace565b50805461307b906135e4565b6000825580601f1061308b575050565b601f01602090049060005260206000209081019061131f91905b8082111561186657600081556001016130a5565b6001600160e01b03198116811461131f57600080fd5b6000602082840312156130e157600080fd5b8135611ba3816130b9565b60005b838110156131075781810151838201526020016130ef565b50506000910152565b600081518084526131288160208601602086016130ec565b601f01601f19169290920160200192915050565b602081526000611ba36020830184613110565b60006020828403121561316157600080fd5b5035919050565b80356001600160a01b038116811461104e57600080fd5b6000806040838503121561319257600080fd5b61319b83613168565b946020939093013593505050565b83815263ffffffff831660208201526060604082015260006131ce6060830184613110565b95945050505050565b6000806000606084860312156131ec57600080fd5b6131f584613168565b925061320360208501613168565b929592945050506040919091013590565b634e487b7160e01b600052604160045260246000fd5b60008067ffffffffffffffff84111561324557613245613214565b50604051601f19601f85018116603f0116810181811067ffffffffffffffff8211171561327457613274613214565b60405283815290508082840185101561328c57600080fd5b83836020830137600060208583010152509392505050565b600082601f8301126132b557600080fd5b611ba38383356020850161322a565b6000602082840312156132d657600080fd5b813567ffffffffffffffff8111156132ed57600080fd5b6114a9848285016132a4565b60006020828403121561330b57600080fd5b611ba382613168565b7fff000000000000000000000000000000000000000000000000000000000000008816815260e06020820152600061334f60e0830189613110565b82810360408401526133618189613110565b606084018890526001600160a01b038716608085015260a0840186905283810360c08501528451808252602080870193509091019060005b818110156133b7578351835260209384019390920191600101613399565b50909b9a5050505050505050505050565b600080604083850312156133db57600080fd5b6133e483613168565b9150602083013580151581146133f957600080fd5b809150509250929050565b60008060006060848603121561341957600080fd5b833567ffffffffffffffff81111561343057600080fd5b61343c868287016132a4565b935050602084013563ffffffff8116811461345657600080fd5b9150604084013567ffffffffffffffff81111561347257600080fd5b61347e868287016132a4565b9150509250925092565b6000806000806080858703121561349e57600080fd5b6134a785613168565b93506134b560208601613168565b925060408501359150606085013567ffffffffffffffff8111156134d857600080fd5b8501601f810187136134e957600080fd5b6134f88782356020840161322a565b91505092959194509250565b60008060008060008060c0878903121561351d57600080fd5b61352687613168565b95506020870135945060408701359350606087013560ff8116811461354a57600080fd5b9598949750929560808101359460a0909101359350915050565b60008060006060848603121561357957600080fd5b8335925061358960208501613168565b9150604084013567ffffffffffffffff811681146135a657600080fd5b809150509250925092565b600080604083850312156135c457600080fd5b6135cd83613168565b91506135db60208401613168565b90509250929050565b600181811c908216806135f857607f821691505b602082108103611e7c57634e487b7160e01b600052602260045260246000fd5b601f8211156107da57806000526020600020601f840160051c8101602085101561363f5750805b601f840160051c820191505b8181101561365f576000815560010161364b565b5050505050565b815167ffffffffffffffff81111561368057613680613214565b6136948161368e84546135e4565b84613618565b6020601f8211600181146136c857600083156136b05750848201515b600019600385901b1c1916600184901b17845561365f565b600084815260208120601f198516915b828110156136f857878501518255602094850194600190920191016136d8565b50848210156137165786840151600019600387901b60f8161c191681555b50505050600190811b01905550565b63ffffffff831681526040602082015260006114a96040830184613110565b634e487b7160e01b600052601160045260246000fd5b818103818111156105ea576105ea613744565b808201808211156105ea576105ea613744565b600083516137928184602088016130ec565b8351908301906137a68183602088016130ec565b01949350505050565b634e487b7160e01b600052601260045260246000fd5b6001600160a01b03851681526001600160a01b03841660208201528260408201526080606082015260006137fc6080830184613110565b9695505050505050565b60006020828403121561381857600080fd5b8151611ba3816130b9565b634e487b7160e01b600052602160045260246000fd5b60008261385657634e487b7160e01b600052601260045260246000fd5b500490565b6001600160e01b0382811682821603908111156105ea576105ea613744565b6001600160e01b0381811683821601908111156105ea576105ea61374456fea2646970667358221220cc6ed6f7b00a5ad53f0e8d847a78449f45bc7e100ca623f3491a2ac6ab049c8764736f6c634300081b0033",
  "linkReferences": {},
  "deployedLinkReferences": {}
}