{
  "_format": "hh-sol-artifact-1",
  "contractName": "RentRoom",
  "sourceName": "contracts/RentRoom.sol",
  "abi": [
    {
      "inputs": [
        {
          "internalType": "address",
          "name": "_roomTokenContractAddress",
          "type": "address"
        }
      ],
      "stateMutability": "nonpayable",
      "type": "constructor"
    },
    {
      "inputs": [
        {
          "internalType": "uint256",
          "name": "tokenId",
          "type": "uint256"
        }
      ],
      "name": "RentRoom__AlreadyListed",
      "type": "error"
    },
    {
      "inputs": [
        {
          "internalType": "uint256",
          "name": "tokenId",
          "type": "uint256"
        },
        {
          "internalType": "address",
          "name": "user",
          "type": "address"
        }
      ],
      "name": "RentRoom__AlreadyRented",
      "type": "error"
    },
    {
      "inputs": [],
      "name": "RentRoom__FeeNotInRange",
      "type": "error"
    },
    {
      "inputs": [],
      "name": "RentRoom__NoFees",
      "type": "error"
    },
    {
      "inputs": [],
      "name": "RentRoom__NoProceeds",
      "type": "error"
    },
    {
      "inputs": [
        {
          "internalType": "uint256",
          "name": "tokenId",
          "type": "uint256"
        }
      ],
      "name": "RentRoom__NotListed",
      "type": "error"
    },
    {
      "inputs": [],
      "name": "RentRoom__NotOwner",
      "type": "error"
    },
    {
      "inputs": [],
      "name": "RentRoom__PeriodNotInRange",
      "type": "error"
    },
    {
      "inputs": [],
      "name": "RentRoom__PriceMustBeAboveZero",
      "type": "error"
    },
    {
      "inputs": [
        {
          "internalType": "uint256",
          "name": "tokenId",
          "type": "uint256"
        },
        {
          "internalType": "uint256",
          "name": "totalPrice",
          "type": "uint256"
        }
      ],
      "name": "RentRoom__PriceNotMet",
      "type": "error"
    },
    {
      "inputs": [
        {
          "internalType": "uint256",
          "name": "tokenId",
          "type": "uint256"
        }
      ],
      "name": "RentRoom__isForSale",
      "type": "error"
    },
    {
      "anonymous": false,
      "inputs": [
        {
          "indexed": false,
          "internalType": "address",
          "name": "owner",
          "type": "address"
        },
        {
          "indexed": false,
          "internalType": "uint256",
          "name": "tokenId",
          "type": "uint256"
        }
      ],
      "name": "ListingCanceled",
      "type": "event"
    },
    {
      "anonymous": false,
      "inputs": [
        {
          "indexed": false,
          "internalType": "address",
          "name": "owner",
          "type": "address"
        },
        {
          "indexed": false,
          "internalType": "uint256",
          "name": "tokenId",
          "type": "uint256"
        },
        {
          "indexed": false,
          "internalType": "uint256",
          "name": "newPricePerDay",
          "type": "uint256"
        }
      ],
      "name": "ListingUpdated",
      "type": "event"
    },
    {
      "anonymous": false,
      "inputs": [
        {
          "indexed": false,
          "internalType": "uint256",
          "name": "newFeePercentage",
          "type": "uint256"
        }
      ],
      "name": "NewFee",
      "type": "event"
    },
    {
      "anonymous": false,
      "inputs": [
        {
          "indexed": false,
          "internalType": "address",
          "name": "owner",
          "type": "address"
        },
        {
          "indexed": false,
          "internalType": "address",
          "name": "user",
          "type": "address"
        },
        {
          "indexed": false,
          "internalType": "uint256",
          "name": "tokenId",
          "type": "uint256"
        },
        {
          "indexed": false,
          "internalType": "uint256",
          "name": "pricePerDay",
          "type": "uint256"
        },
        {
          "indexed": false,
          "internalType": "uint256",
          "name": "periodInDays",
          "type": "uint256"
        }
      ],
      "name": "NewRoomListed",
      "type": "event"
    },
    {
      "anonymous": false,
      "inputs": [
        {
          "indexed": true,
          "internalType": "address",
          "name": "previousOwner",
          "type": "address"
        },
        {
          "indexed": true,
          "internalType": "address",
          "name": "newOwner",
          "type": "address"
        }
      ],
      "name": "OwnershipTransferred",
      "type": "event"
    },
    {
      "anonymous": false,
      "inputs": [
        {
          "indexed": false,
          "internalType": "address",
          "name": "renter",
          "type": "address"
        },
        {
          "indexed": false,
          "internalType": "uint256",
          "name": "tokenId",
          "type": "uint256"
        },
        {
          "indexed": false,
          "internalType": "uint256",
          "name": "totalPrice",
          "type": "uint256"
        }
      ],
      "name": "RoomRented",
      "type": "event"
    },
    {
      "inputs": [],
      "name": "RoomMarketplaceContractAddress",
      "outputs": [
        {
          "internalType": "address",
          "name": "",
          "type": "address"
        }
      ],
      "stateMutability": "view",
      "type": "function"
    },
    {
      "inputs": [
        {
          "internalType": "uint256",
          "name": "_tokenId",
          "type": "uint256"
        }
      ],
      "name": "cancelListing",
      "outputs": [],
      "stateMutability": "nonpayable",
      "type": "function"
    },
    {
      "inputs": [],
      "name": "getFeePercentage",
      "outputs": [
        {
          "internalType": "uint256",
          "name": "",
          "type": "uint256"
        }
      ],
      "stateMutability": "view",
      "type": "function"
    },
    {
      "inputs": [
        {
          "internalType": "uint256",
          "name": "_tokenId",
          "type": "uint256"
        }
      ],
      "name": "getListing",
      "outputs": [
        {
          "components": [
            {
              "internalType": "address",
              "name": "owner",
              "type": "address"
            },
            {
              "internalType": "address",
              "name": "user",
              "type": "address"
            },
            {
              "internalType": "uint256",
              "name": "pricePerDay",
              "type": "uint256"
            },
            {
              "internalType": "uint64",
              "name": "periodInDays",
              "type": "uint64"
            }
          ],
          "internalType": "struct RentRoom.Listing",
          "name": "",
          "type": "tuple"
        }
      ],
      "stateMutability": "view",
      "type": "function"
    },
    {
      "inputs": [],
      "name": "getMarketplaceAddress",
      "outputs": [
        {
          "internalType": "address",
          "name": "",
          "type": "address"
        }
      ],
      "stateMutability": "view",
      "type": "function"
    },
    {
      "inputs": [
        {
          "internalType": "address",
          "name": "_seller",
          "type": "address"
        }
      ],
      "name": "getProceeds",
      "outputs": [
        {
          "internalType": "uint256",
          "name": "",
          "type": "uint256"
        }
      ],
      "stateMutability": "view",
      "type": "function"
    },
    {
      "inputs": [
        {
          "internalType": "address",
          "name": "_nftAddress",
          "type": "address"
        }
      ],
      "name": "isRentableRoom",
      "outputs": [
        {
          "internalType": "bool",
          "name": "",
          "type": "bool"
        }
      ],
      "stateMutability": "view",
      "type": "function"
    },
    {
      "inputs": [
        {
          "internalType": "uint256",
          "name": "_tokenId",
          "type": "uint256"
        },
        {
          "internalType": "uint64",
          "name": "_periodInDays",
          "type": "uint64"
        },
        {
          "internalType": "uint256",
          "name": "_pricePerDay",
          "type": "uint256"
        }
      ],
      "name": "listItem",
      "outputs": [],
      "stateMutability": "nonpayable",
      "type": "function"
    },
    {
      "inputs": [
        {
          "internalType": "uint256",
          "name": "",
          "type": "uint256"
        }
      ],
      "name": "listings",
      "outputs": [
        {
          "internalType": "address",
          "name": "owner",
          "type": "address"
        },
        {
          "internalType": "address",
          "name": "user",
          "type": "address"
        },
        {
          "internalType": "uint256",
          "name": "pricePerDay",
          "type": "uint256"
        },
        {
          "internalType": "uint64",
          "name": "periodInDays",
          "type": "uint64"
        }
      ],
      "stateMutability": "view",
      "type": "function"
    },
    {
      "inputs": [],
      "name": "owner",
      "outputs": [
        {
          "internalType": "address",
          "name": "",
          "type": "address"
        }
      ],
      "stateMutability": "view",
      "type": "function"
    },
    {
      "inputs": [],
      "name": "renounceOwnership",
      "outputs": [],
      "stateMutability": "nonpayable",
      "type": "function"
    },
    {
      "inputs": [
        {
          "internalType": "uint256",
          "name": "_tokenId",
          "type": "uint256"
        },
        {
          "internalType": "uint64",
          "name": "_periodInDays",
          "type": "uint64"
        }
      ],
      "name": "rentNFT",
      "outputs": [],
      "stateMutability": "payable",
      "type": "function"
    },
    {
      "inputs": [],
      "name": "roomTokenContractAddress",
      "outputs": [
        {
          "internalType": "address",
          "name": "",
          "type": "address"
        }
      ],
      "stateMutability": "view",
      "type": "function"
    },
    {
      "inputs": [
        {
          "internalType": "uint8",
          "name": "_newFeePercentage",
          "type": "uint8"
        }
      ],
      "name": "setFeePercentage",
      "outputs": [],
      "stateMutability": "nonpayable",
      "type": "function"
    },
    {
      "inputs": [
        {
          "internalType": "address",
          "name": "_RoomMarketplaceContractAddress",
          "type": "address"
        }
      ],
      "name": "setMarketplaceAddress",
      "outputs": [],
      "stateMutability": "nonpayable",
      "type": "function"
    },
    {
      "inputs": [
        {
          "internalType": "address",
          "name": "newOwner",
          "type": "address"
        }
      ],
      "name": "transferOwnership",
      "outputs": [],
      "stateMutability": "nonpayable",
      "type": "function"
    },
    {
      "inputs": [
        {
          "internalType": "uint256",
          "name": "_tokenId",
          "type": "uint256"
        },
        {
          "internalType": "uint256",
          "name": "_newPricePerDay",
          "type": "uint256"
        }
      ],
      "name": "updateListingPricePerDay",
      "outputs": [],
      "stateMutability": "nonpayable",
      "type": "function"
    },
    {
      "inputs": [],
      "name": "withdrawFees",
      "outputs": [],
      "stateMutability": "nonpayable",
      "type": "function"
    },
    {
      "inputs": [],
      "name": "withdrawProceeds",
      "outputs": [],
      "stateMutability": "nonpayable",
      "type": "function"
    }
  ],
  "bytecode": "0x6080604052600f60045561016d60059081556006805460ff19169091179055600060075534801561002f57600080fd5b50604051611c0f380380611c0f83398101604081905261004e916100d3565b600160005561005c33610081565b600280546001600160a01b0319166001600160a01b0392909216919091179055610103565b600180546001600160a01b038381166001600160a01b0319831681179093556040519116919082907f8be0079c531659141344cd1fd0a4f28419497f9722a3daafe3b4186f6b6457e090600090a35050565b6000602082840312156100e557600080fd5b81516001600160a01b03811681146100fc57600080fd5b9392505050565b611afd806101126000396000f3fe6080604052600436106101445760003560e01c8063715018a6116100c0578063b47cc55611610074578063de74e57b11610059578063de74e57b1461042a578063f0265d74146104b8578063f2fde38b146104d857600080fd5b8063b47cc556146103ec578063bb8fe7851461040c57600080fd5b80639038e693116100a55780639038e693146103975780639b6e4ea4146103ac578063a5766aa6146103cc57600080fd5b8063715018a6146103645780638da5cb5b1461037957600080fd5b806330cfeda91161011757806332520976116100fc578063325209761461031c578063442b18f61461032f578063476343ee1461034f57600080fd5b806330cfeda9146102ae57806331e483b6146102e457600080fd5b8063107a274a1461014957806311efbf611461023a5780632d35f4d71461025c578063305a67a81461028c575b600080fd5b34801561015557600080fd5b506101dd61016436600461186d565b6040805160808082018352600080835260208084018290528385018290526060938401829052948152600885528390208351918201845280546001600160a01b0390811683526001820154169482019490945260028401549281019290925260039092015467ffffffffffffffff169181019190915290565b604051610231919060006080820190506001600160a01b0383511682526001600160a01b0360208401511660208301526040830151604083015267ffffffffffffffff606084015116606083015292915050565b60405180910390f35b34801561024657600080fd5b5060065460ff165b604051908152602001610231565b34801561026857600080fd5b5061027c61027736600461189b565b6104f8565b6040519015158152602001610231565b34801561029857600080fd5b506102ac6102a736600461186d565b610632565b005b3480156102ba57600080fd5b5061024e6102c936600461189b565b6001600160a01b031660009081526009602052604090205490565b3480156102f057600080fd5b50600254610304906001600160a01b031681565b6040516001600160a01b039091168152602001610231565b6102ac61032a3660046118dc565b6107eb565b34801561033b57600080fd5b506102ac61034a366004611908565b610d94565b34801561035b57600080fd5b506102ac6112db565b34801561037057600080fd5b506102ac6113c3565b34801561038557600080fd5b506001546001600160a01b0316610304565b3480156103a357600080fd5b506102ac6113d7565b3480156103b857600080fd5b50600354610304906001600160a01b031681565b3480156103d857600080fd5b506102ac6103e736600461193e565b61143c565b3480156103f857600080fd5b506102ac61040736600461189b565b6114ca565b34801561041857600080fd5b506003546001600160a01b0316610304565b34801561043657600080fd5b5061048361044536600461186d565b60086020526000908152604090208054600182015460028301546003909301546001600160a01b0392831693919092169167ffffffffffffffff1684565b604080516001600160a01b0395861681529490931660208501529183015267ffffffffffffffff166060820152608001610231565b3480156104c457600080fd5b506102ac6104d3366004611961565b611501565b3480156104e457600080fd5b506102ac6104f336600461189b565b6116a2565b6040516301ffc9a760e01b81527fad092b5c000000000000000000000000000000000000000000000000000000006004820152600090819081906001600160a01b038516906301ffc9a790602401602060405180830381865afa92505050801561057f575060408051601f3d908101601f1916820190925261057c91810190611983565b60015b61058d575060009392505050565b6040516301ffc9a760e01b81527f80ac58cd0000000000000000000000000000000000000000000000000000000060048201529092506001600160a01b038516906301ffc9a790602401602060405180830381865afa925050508015610610575060408051601f3d908101601f1916820190925261060d91810190611983565b60015b61061e575060009392505050565b905081801561062a5750805b949350505050565b6002546040516331a9108f60e11b815260048101839052829133916001600160a01b03909116906000908290636352211e90602401602060405180830381865afa158015610684573d6000803e3d6000fd5b505050506040513d601f19601f820116820180604052508101906106a891906119a5565b9050806001600160a01b0316836001600160a01b0316146106dc576040516301cd226360e41b815260040160405180910390fd5b600085815260086020908152604091829020825160808101845281546001600160a01b0390811682526001830154169281019290925260028101549282018390526003015467ffffffffffffffff1660608201528691610757576040516317fc91d360e11b8152600481018390526024015b60405180910390fd5b6000878152600860209081526040808320805473ffffffffffffffffffffffffffffffffffffffff199081168255600182018054909116905560028101939093556003909201805467ffffffffffffffff1916905581513381529081018990527f3267ca70878aeda07084f851ec813390240ed2e92e29d57bf4b46f569293d85f910160405180910390a150505050505050565b600082815260086020908152604091829020825160808101845281546001600160a01b0390811682526001830154169281019290925260028101549282018390526003015467ffffffffffffffff1660608201528391610861576040516317fc91d360e11b81526004810183905260240161074e565b600254604051636178f8a560e11b81526004810186905285916000916001600160a01b039091169063c2f1f14a90602401602060405180830381865afa1580156108af573d6000803e3d6000fd5b505050506040513d601f19601f820116820180604052508101906108d391906119a5565b6001600160a01b03161461099357600254604051636178f8a560e11b81526004810183905282916001600160a01b03169063c2f1f14a906024015b602060405180830381865afa15801561092b573d6000803e3d6000fd5b505050506040513d601f19601f8201168201806040525081019061094f91906119a5565b6040517fc52ec9cf00000000000000000000000000000000000000000000000000000000815260048101929092526001600160a01b0316602482015260440161074e565b60035460405163083d13a560e11b81526004810187905286916000916001600160a01b039091169063107a274a906024016040805180830381865afa1580156109e0573d6000803e3d6000fd5b505050506040513d601f19601f82011682018060405250810190610a0491906119c2565b602001516001600160a01b031614610a3257604051631b50ea8b60e21b81526004810182905260240161074e565b610a3a611732565b600086815260086020908152604091829020825160808101845281546001600160a01b0390811682526001830154169281019290925260028101549282019290925260039091015467ffffffffffffffff908116606083018190529087161180610aaf57506004548667ffffffffffffffff16105b15610acd57604051630bca8fc360e01b815260040160405180910390fd5b8567ffffffffffffffff168160400151610ae79190611a3e565b341015610b4457868667ffffffffffffffff168260400151610b099190611a3e565b6040517f3f4c49710000000000000000000000000000000000000000000000000000000081526004810192909252602482015260440161074e565b6000610b4f8761178b565b600654909150600090606490610b689060ff1634611a3e565b610b729190611a55565b90508060076000828254610b869190611a77565b90915550610b9690508134611a8a565b6002546040516331a9108f60e11b8152600481018c90526009916000916001600160a01b0390911690636352211e90602401602060405180830381865afa158015610be5573d6000803e3d6000fd5b505050506040513d601f19601f82011682018060405250810190610c0991906119a5565b6001600160a01b03166001600160a01b031681526020019081526020016000206000828254610c389190611a77565b9091555050600089815260086020526040808220805473ffffffffffffffffffffffffffffffffffffffff1990811682556001820180549091169055600280820193909355600301805467ffffffffffffffff19169055905490517fe030565e000000000000000000000000000000000000000000000000000000008152600481018b905233602482015267ffffffffffffffff841660448201526001600160a01b039091169063e030565e90606401600060405180830381600087803b158015610d0257600080fd5b505af1158015610d16573d6000803e3d6000fd5b505050507f87703c1ee79a5adae191024ebe59509e6447d5eb1961e2d6ec0020509d351e14338a8a67ffffffffffffffff168660400151610d579190611a3e565b604080516001600160a01b03909416845260208401929092529082015260600160405180910390a1505050610d8c6001600055565b505050505050565b6002546040516331a9108f60e11b815260048101859052849133916001600160a01b03909116906000908290636352211e90602401602060405180830381865afa158015610de6573d6000803e3d6000fd5b505050506040513d601f19601f82011682018060405250810190610e0a91906119a5565b9050806001600160a01b0316836001600160a01b031614610e3e576040516301cd226360e41b815260040160405180910390fd5b600087815260086020908152604091829020825160808101845281546001600160a01b0390811682526001830154169281019290925260028101549282018390526003015467ffffffffffffffff166060820152889115610ece576040517f5b4438d10000000000000000000000000000000000000000000000000000000081526004810183905260240161074e565b60035460405163083d13a560e11b8152600481018b90528a916000916001600160a01b039091169063107a274a906024016040805180830381865afa158015610f1b573d6000803e3d6000fd5b505050506040513d601f19601f82011682018060405250810190610f3f91906119c2565b602001516001600160a01b031614610f6d57604051631b50ea8b60e21b81526004810182905260240161074e565b600254604051636178f8a560e11b8152600481018c90528b916000916001600160a01b039091169063c2f1f14a90602401602060405180830381865afa158015610fbb573d6000803e3d6000fd5b505050506040513d601f19601f82011682018060405250810190610fdf91906119a5565b6001600160a01b03161461101e57600254604051636178f8a560e11b81526004810183905282916001600160a01b03169063c2f1f14a9060240161090e565b611026611732565b6000891161104757604051630fc1df8960e41b815260040160405180910390fd5b6004548a67ffffffffffffffff16108061106c57506005548a67ffffffffffffffff16115b1561108a57604051630bca8fc360e01b815260040160405180910390fd5b6040518060800160405280336001600160a01b0316815260200160006001600160a01b031681526020018a81526020018b67ffffffffffffffff16815250600860008d815260200190815260200160002060008201518160000160006101000a8154816001600160a01b0302191690836001600160a01b0316021790555060208201518160010160006101000a8154816001600160a01b0302191690836001600160a01b031602179055506040820151816002015560608201518160030160006101000a81548167ffffffffffffffff021916908367ffffffffffffffff1602179055509050507f5dff73e5cdd68f2cb2d00407fa6c24f330669996da65c4073a28e73207bf486e600260009054906101000a90046001600160a01b03166001600160a01b0316636352211e8d6040518263ffffffff1660e01b81526004016111d591815260200190565b602060405180830381865afa1580156111f2573d6000803e3d6000fd5b505050506040513d601f19601f8201168201806040525081019061121691906119a5565b600254604051636178f8a560e11b8152600481018f90526001600160a01b039091169063c2f1f14a90602401602060405180830381865afa15801561125f573d6000803e3d6000fd5b505050506040513d601f19601f8201168201806040525081019061128391906119a5565b604080516001600160a01b03938416815292909116602083015281018d9052606081018b905267ffffffffffffffff8c16608082015260a00160405180910390a16112ce6001600055565b5050505050505050505050565b6112e36117b4565b6007548061131d576040517f747b69f300000000000000000000000000000000000000000000000000000000815260040160405180910390fd5b60006007819055604051339083905b60006040518083038185875af1925050503d8060008114611369576040519150601f19603f3d011682016040523d82523d6000602084013e61136e565b606091505b50509050806113bf5760405162461bcd60e51b815260206004820152600f60248201527f5472616e73666572206661696c65640000000000000000000000000000000000604482015260640161074e565b5050565b6113cb6117b4565b6113d5600061180e565b565b336000908152600960205260409020548061141e576040517fa7ec8a1100000000000000000000000000000000000000000000000000000000815260040160405180910390fd5b3360008181526009602052604080822082905551909190839061132c565b6114446117b4565b60648160ff161115611482576040517fb25b713b00000000000000000000000000000000000000000000000000000000815260040160405180910390fd5b6006805460ff191660ff83169081179091556040519081527f63fe946ed58429ac3c5e64d4356ff92c26d7fa1e73586515df8ba9f059ab54a59060200160405180910390a150565b6114d26117b4565b6003805473ffffffffffffffffffffffffffffffffffffffff19166001600160a01b0392909216919091179055565b6002546040516331a9108f60e11b815260048101849052839133916001600160a01b03909116906000908290636352211e90602401602060405180830381865afa158015611553573d6000803e3d6000fd5b505050506040513d601f19601f8201168201806040525081019061157791906119a5565b9050806001600160a01b0316836001600160a01b0316146115ab576040516301cd226360e41b815260040160405180910390fd5b600086815260086020908152604091829020825160808101845281546001600160a01b0390811682526001830154169281019290925260028101549282018390526003015467ffffffffffffffff1660608201528791611621576040516317fc91d360e11b81526004810183905260240161074e565b8660000361164257604051630fc1df8960e41b815260040160405180910390fd5b60008881526008602090815260409182902060020189905581513381529081018a90529081018890527f3e11d82182e9689c0f7ffc3ce2a4a057e1fc080032c0dcce9c269258c874a86c9060600160405180910390a15050505050505050565b6116aa6117b4565b6001600160a01b0381166117265760405162461bcd60e51b815260206004820152602660248201527f4f776e61626c653a206e6577206f776e657220697320746865207a65726f206160448201527f6464726573730000000000000000000000000000000000000000000000000000606482015260840161074e565b61172f8161180e565b50565b6002600054036117845760405162461bcd60e51b815260206004820152601f60248201527f5265656e7472616e637947756172643a207265656e7472616e742063616c6c00604482015260640161074e565b6002600055565b600061179a8262015180611a9d565b6117ae9067ffffffffffffffff1642611a77565b92915050565b6001546001600160a01b031633146113d55760405162461bcd60e51b815260206004820181905260248201527f4f776e61626c653a2063616c6c6572206973206e6f7420746865206f776e6572604482015260640161074e565b600180546001600160a01b0383811673ffffffffffffffffffffffffffffffffffffffff19831681179093556040519116919082907f8be0079c531659141344cd1fd0a4f28419497f9722a3daafe3b4186f6b6457e090600090a35050565b60006020828403121561187f57600080fd5b5035919050565b6001600160a01b038116811461172f57600080fd5b6000602082840312156118ad57600080fd5b81356118b881611886565b9392505050565b803567ffffffffffffffff811681146118d757600080fd5b919050565b600080604083850312156118ef57600080fd5b823591506118ff602084016118bf565b90509250929050565b60008060006060848603121561191d57600080fd5b8335925061192d602085016118bf565b929592945050506040919091013590565b60006020828403121561195057600080fd5b813560ff811681146118b857600080fd5b6000806040838503121561197457600080fd5b50508035926020909101359150565b60006020828403121561199557600080fd5b815180151581146118b857600080fd5b6000602082840312156119b757600080fd5b81516118b881611886565b600060408284031280156119d557600080fd5b506040805190810167ffffffffffffffff81118282101715611a0757634e487b7160e01b600052604160045260246000fd5b604052825181526020830151611a1c81611886565b60208201529392505050565b634e487b7160e01b600052601160045260246000fd5b80820281158282048414176117ae576117ae611a28565b600082611a7257634e487b7160e01b600052601260045260246000fd5b500490565b808201808211156117ae576117ae611a28565b818103818111156117ae576117ae611a28565b67ffffffffffffffff8181168382160290811690818114611ac057611ac0611a28565b509291505056fea264697066735822122027c2baea87ddfed93d89ccd1c92c7b05e514d5eae331e0fc471f248f5135aa2164736f6c634300081b0033",
  "linkReferences": {},
  "deployedLinkReferences": {}
}